:020000040800F2
:1000000058060020C5010008F9140008DB070008A5
:10001000F514000889040008B11A00080000000067
:1000200000000000000000000000000009170008A8
:10003000CD04000800000000510200086D180008FF
:10004000DF010008DF010008DF010008DF01000810
:10005000DF010008DF01000879050008DF01000862
:10006000DF010008DF010008DF010008DF010008F0
:10007000DF010008DF010008DF010008DF010008E0
:10008000DF010008DF010008DF010008DF010008D0
:10009000DF010008DF010008DF010008DF010008C0
:1000A000DF010008DF010008DF010008DF010008B0
:1000B000DF010008DF010008DF010008DF010008A0
:1000C000DF010008DF010008DF010008DF01000890
:1000D000DF010008DF010008DF010008DF01000880
:1000E00099050008DF010008DF010008DF010008B2
:1000F000DF010008DF010008DF010008DF01000860
:10010000DF010008DF010008DF010008DF0100084F
:10011000DF010008DF010008DF010008DF0100083F
:10012000DF010008DF010008DF010008DF0100082F
:10013000DF010008DF010008DF010008DF0100081F
:10014000DF010008DF010008DF010008DF0100080F
:10015000DF010008DF010008DF010008DF010008FF
:10016000DF010008DF010008DF010008DF010008EF
:10017000DF010008DF010008DF01000800000000C7
:10018000DF010008DF010008DF010008DF010008CF
:10019000DF010008DF010008DF010008DF010008BF
:1001A000DF010008DF010008DF010008DFF810D0E0
:1001B00000F0F4F800480047711F0008AFF300801A
:1001C000580600200648804706480047FEE7FEE73D
:1001D000FEE7FEE7FEE7FEE7FEE7FEE7FEE7FEE7F7
:1001E00099180008AD01000872B62C482C49026825
:1001F00041EA020101602B484FF0010101602A48E9
:100200004168016001688A884FF0100342EA0302E6
:100210008A80D1F800C00CF1240CBCE8FF008CF3FC
:1002200009884FF0020C8CF31488AE4662B6304752
:10023000EFF3108072B67047EFF3108062B670472C
:1002400080F31088704719484FF080510160704763
:10025000EFF3108C72B6164A126822B12DE90050E5
:100260009047BDE80050EFF3098020E9F01F0E4DE4
:100270004FF010082E683060B78827EA0807B7806B
:1002800068682860878847EA080787800168B1E8BE
:10029000F01F81F309888CF31088704720ED00E08F
:1002A0000000FFFF780000204000002004ED00E087
:1002B0007C0000202DE9F05F0546002092469B4619
:1002C00088460646814640241BE02846414647466C
:1002D000224600F053F853465A46C01A914110D3B3
:1002E00011461846224600F03AF82D1A67EB01082D
:1002F0004F4622460120002100F031F817EB00099B
:100300004E41201EA4F10104DFDC484631462A4656
:100310004346BDE8F09F40EA01039B0703D009E094
:1003200008C9121F08C0042AFAD203E011F8013BE1
:1003300000F8013B521EF9D27047D2B201E000F83A
:10034000012B491EFBD270470022F6E710B5134679
:100350000A4604461946FFF7F0FF204610BD202A42
:1003600004DB203A00FA02F1002070479140C2F10C
:10037000200320FA03F3194390407047202A04DB3E
:10038000203A21FA02F00021704721FA02F3D0400E
:10039000C2F120029140084319467047064C074DB0
:1003A00006E0E06840F0010394E807009847103445
:1003B000AC42F6D3FFF7FEFE64370008843700082E
:1003C00010B500240C49002000F066FA044614B170
:1003D0000AA001F06FFB1349002000F05DFA04460B
:1003E00014B111A001F066FB00F050F8044614B1FE
:1003F00017A001F05FFB10BDF000002042696E61A4
:10040000727953656D315F48616E646C6520B6FE2C
:10041000D6B5D0C5BAC5C1BFB4B4BDA8CAA7B0DCF3
:10042000210A0000F400002042696E617279536570
:100430006D325F48616E646C6520B6FED6B5D0C57E
:10044000BAC5C1BFB4B4BDA8CAA7B0DC210A0000B8
:10045000546573745F5461736B20C8CECEF1B4B42D
:10046000BDA8CAA7B0DC210A0000000010B54FF4F7
:10047000407001F0ABF800F0CFF900F029F800F07F
:10048000AFF900F0F7F810BD00BFFEE710B586B079
:1004900000240520ADF8040007A00490094800904E
:1004A0004FF4805003906946074800F0CBFD0446A6
:1004B000204606B010BD0000546573745F5461732C
:1004C0006B000000F5180008EC00002070470000E9
:1004D00000B587B00121084601F082F80121102003
:1004E00001F08EF800208DF81A0001208DF81B0015
:1004F00002208DF819008DF818000002059005A95A
:100500001B4800F0FFF802208DF81800400205900B
:1005100005A9174800F0F6F807220A21144800F050
:1005200039F907220921124800F034F94FF4E1307B
:1005300001900020ADF80800ADF80A00ADF80C00FD
:10054000ADF810000C20ADF80E0001A9094801F02B
:1005500041FA00F0D2FF012240F22551054801F096
:1005600014FA0121034801F0F7F907B000BD0000BB
:10057000000002400010014010B5012000F024F8F6
:1005800030B10448006800F0DDFC012000F016F8EE
:1005900010BD0000F000002010B54FF4005000F036
:1005A00013F838B10448006800F0CCFC4FF4005058
:1005B00000F004F810BD0000F400002001490860BC
:1005C00070470000143C014001460020034A1268B5
:1005D0000A400AB1012000E000207047143C0140AD
:1005E000002123498279002A3AD00A46126803681A
:1005F0009A430B461A600A1D126803689A430B1D42
:100600001A60027911440A6803681A430A60184A9A
:100610000832126803689A43154B08331A601A1D92
:10062000126803689A43124B0C331A604279102AFD
:100630000ED11A1F126803681A430D4B08331A6053
:100640001A1D126803681A43094B0C331A600DE037
:100650000749427911440A6803681A430A6005E0B1
:10066000027911440A6803689A430A6070470000DF
:10067000003C01401FB50121052000F0B1FF012120
:10068000880300F0BDFF00F04BFF01200290002026
:100690008DF80C008DF80F0002A9184800F032F810
:1006A0000021084601F032F80120009000208DF86A
:1006B000040008208DF8050001208DF8060068462A
:1006C000FFF78EFF4FF40050029002A90C4800F093
:1006D00019F80D21022001F019F84FF40050009094
:1006E00000208DF804000C208DF8050001208DF805
:1006F00006006846FFF774FF1FBD000000000240BF
:1007000000080240F0B50A4600210023002400BF83
:100710003DE0012505FA01F3156805EA03049C4252
:1007200034D105684F000326BE40B54305601579F6
:100730004E00B5400668354305601579012D02D09D
:100740001579022D16D185684F000326BE40B543AA
:10075000856055794E00B5408668354385604568AB
:1007600001268E40B5434560456896798E40B6B205
:1007700035434560C5684F000326BE40B543C5609C
:10078000D5794E00B540C6683543C560491C10296F
:10079000BFD3F0BDF0B5002300244D07ED0E02FAE3
:1007A00005F3CE1000F1200555F826504E07F70E40
:1007B0000F26BE40B543CF1000F1200646F8275063
:1007C000CE1000F1200555F8265045EA0304CE105E
:1007D00000F1200545F82640F0BD00BFFEE700000F
:1007E0001CB50121052000F0FBFE01200090002037
:1007F0008DF804008DF8070069460548FFF782FF71
:100800004FF40050009069460248FFF77BFF1CBD83
:1008100000000240000802401CB50121802000F0C9
:10082000DFFE4FF48060009001208DF8040000206E
:100830008DF8060001208DF8070000208DF80500D6
:1008400069460D48FFF75EFF4FF40060009069466F
:100850000948FFF757FF4FF480500090694606485B
:10086000FFF750FF4FF480600349183108804000C3
:100870000880400008801CBD001C02400246501841
:10088000401E904204D95018401E4B1E984370479A
:10089000481E22EA0000FAE770B505460C462246DB
:1008A0000121284602F0EAF870BD00002DE9F84366
:1008B00005460C4616461F46DDF820800A480068AB
:1008C00048B10948CDF800803B4632462146D0F871
:1008D00000C02846E0470548844202D00020BDE819
:1008E000F8830020FBE70000E4000020F8C3B2A179
:1008F00010B502F0B9F82A482A49086001F01CFE38
:10090000044654B100BF28A001F0D4F8214628A025
:1009100001F0D0F800BF204610BD02F0F7FB0446FE
:100920004CB100BF20A001F0C5F828A001F0C2F82A
:1009300000BF2046F0E702F07DFC02F0FDF804461F
:100940000CB12046E8E701F005FE04460CB1204654
:10095000E2E701F04DFF04464CB100BF12A001F0E8
:10096000A9F81FA001F0A6F800BF2046D4E702F0C6
:1009700041FA04464CB100BF0BA001F09BF81DA04A
:1009800001F098F800BF2046C6E702F09DFE01F096
:10099000A9FD04460CB12046BEE70020BCE70000DC
:1009A00058060020E80000205B4552525D20000000
:1009B0006F734D656D53797374656D496E697420FD
:1009C0006572726F722025640A0000006F735461B3
:1009D000736B496E6974206572726F720A00000051
:1009E0006F735175657565496E6974206572726FB4
:1009F000720A00006F735377546D72496E697420E8
:100A00006572726F720A000042684A60086042684C
:100A100011604160704742684A6008604268116036
:100A20004160704742684A600860426811604160F6
:100A3000704742684A6008604268116041607047D0
:100A4000D0E900121160D0E900215160002141601D
:100A50000160704701464868884201D10120704713
:100A60000020FCE701464868884201D10120704718
:100A70000020FCE701464868884201D10120704708
:100A80000020FCE701464868884201D101207047F8
:100A90000020FCE7406000607047406000607047E5
:100AA00040600060704740600060704770B5044669
:100AB0000D4629462068FFF7A7FF70BD70B50446B4
:100AC0000D46002604B10DB9304670BD29462046BA
:100AD00002F0D0F8064626B92946204601F01CFB54
:100AE00006463046F1E770B504460D4616463246D6
:100AF0002946204601F0C4FB70BD70B504460D4682
:100B0000002604B10DB9012070BD2946204602F02F
:100B100001F90646012E04D02946204601F0DEFBED
:100B20000646012E01D00120EEE70020ECE7000090
:100B30002DE9F84F04460E464FF00108304805688D
:100B4000D0F800900CB1502E02D80120BDE8F88FEB
:100B500004F0030008B10120F8E7FFF769FB8246C3
:100B600020E0A8684719AC4202D8A019A84204D8CE
:100B7000BC4215D2A019B84212D300BF21A000F088
:100B800099FFA8682844A2192B46214600901FA06F
:100B900000F090FF00BF5046FFF752FB0120D5E761
:100BA000A946ED68002DDCD13146204601F036FC27
:100BB0008046B8F1000F04D15046FFF741FB0120F9
:100BC000C4E7B6F5805F0BD3204602F0DDF880461F
:100BD000B8F1000F04D15046FFF732FB0120B5E712
:100BE0000748006810B90648046001E0C9F80C40E5
:100BF0000020E0605046FFF723FB0020A6E700003E
:100C0000E00000205B4552525D200000706F6F6C69
:100C1000205B25702C20307825782920636F6E6644
:100C20006C696374207769746820706F6F6C205BE7
:100C300025702C2030782578290A00002DE9F05FF6
:100C40000E469046DDF8289009F104001FFA80FA5C
:100C5000B8F1000F02D12E48BDE8F09F4FF6FB70AF
:100C6000814502DD2A480938F6E716B1B9F1000FCF
:100C700002D12748401CEFE706FB0AF1254800682F
:100C8000FFF71CFF074617B921480A38E4E7FFF7CA
:100C9000CFFA83462048FFF7EDFE50B15846FFF7E4
:100CA000CFFA39461B480068FFF727FF1848083875
:100CB000D2E71948456800BFD5E900010860D5E9C9
:100CC0000010486000206860286000BFA5F11C0487
:100CD000E680A4F808A027600120A08000202082E0
:100CE0006682A081E08104F11400FFF7D9FE04F1CF
:100CF0001C00FFF7D5FE04F12400FFF7D1FE584693
:100D0000FFF79EFA6089C8F800000020A4E7000001
:100D10000C060002E8000020BC0000202DE9F8438A
:100D200081460C4615461E4633462A46214648460D
:100D300001F05AFE074617B13846BDE8F8834FF078
:100D400000082B46224641464846009601F088FDA1
:100D5000F3E72DE9FF4182B080460C461D462B4645
:100D600004AA2146404601F05FFE06461EB1304609
:100D700006B0BDE8F081032704AB22463946404661
:100D8000009501F06DFDF3E710B5FFF751FA044649
:100D900001F094FC28380A49486008460068496810
:100DA000884208D00748008828B92046FFF748FA4B
:100DB000FFF749FA10BD2046FFF742FA00BFF9E7F6
:100DC00040000020480000202DE9F84307468846EF
:100DD000142F0BD300BF002003463C4A3C4900902F
:100DE0003CA0FFF763FD3948BDE8F8833E48006842
:100DF00000EB0714FFF71CFA8146208868B94846C3
:100E0000FFF71EFA00BF00200346304A3049009029
:100E100030A0FFF74BFD2D48E6E76088002807DD8E
:100E20006088401E60804846FFF70AFA0020DBE732
:100E3000B8F1000F02D1254DED1C39E001F078FB2F
:100E400050B1224D2D1D00BF28A000F033FE29A077
:100E500000F030FE00BF2BE02F48008850B11B4D42
:100E60006D1D00BF21A000F025FE2CA000F022FE89
:100E700000BF1DE032480668B4614246082104F113
:100E8000080002F01FFB4846FFF7DAF9FFF77CFF86
:100E9000307900F0400048B1FFF7CAF98146B088C8
:100EA00020F04000B080094DAD1D01E000209BE71F
:100EB0004846FFF7C5F900BF002003462A4604490B
:100EC000009004A0FFF7F2FC28468DE7010700021E
:100ED000F8C3B2A16F735F756E73706563696669FD
:100EE000635F66696C650000CC0000205B45525270
:100EF0005D2000002121214C4F535F4552524E4F3F
:100F00005F53454D5F50454E445F494E54455252E4
:100F10002121210A00000000480000202121214C4D
:100F20004F535F4552524E4F5F53454D5F50454EB4
:100F3000445F494E5F4C4F434B2121210A00000082
:100F400040000020F8B505462548006800EB051470
:100F5000142D01D32348F8BDFFF76AF9074620880E
:100F600068B93846FFF76CF900BF002003461D4AF8
:100F70001D4900901DA0FFF799FC1A48EBE7A088D7
:100F8000618888420FD13846FFF75AF900BF002028
:100F90000346144AD21D1449009014A0FFF786FCA2
:100FA0001048C01DD7E704F10800FFF76BFD70B9CA
:100FB000E068A0F128060020B0610821304602F068
:100FC000A7FA3846FFF73CF9FFF7DEFE05E0608838
:100FD000401C60803846FFF733F90020BBE7000073
:100FE000CC00002001070002F8C3B2A16F735F7547
:100FF0006E73706563696669635F66696C6500003E
:1010000010B502F0BDFA04464CB100BF06A000F0D6
:1010100051FD07A000F04EFD00BF204610BDFFF7B8
:10102000E3F82046FAE700005B4552525D200000DD
:101030006F735469636B5374617274206572726F5D
:10104000720A00002DE9F04105460F460026394698
:10105000284600F045F8064616B13046BDE8F08156
:101060002868C0EBC00000EB40001949096801EB9B
:101070008004FFF7DDF88046A08820F00200A08001
:10108000A08840F00400A080E18804F1280001F06D
:10109000B9FA01F013FB28380E4948600E48006881
:1010A00088B10E48008870B90846006849688842CF
:1010B00009D00A48008830B94046FFF7C1F801F06E
:1010C000D9FC0020CAE74046FFF7BAF80020C5E780
:1010D0003C00002040000020780000204800002054
:1010E0002DE9F05F07460C464FF000084FF0FF3A3D
:1010F00017B95448BDE8F09F14B95248801FF9E76A
:10110000206910B94F48801EF4E7206810B94D4897
:10111000C01EEFE7A0881F2802DD4A48001FE9E74C
:10112000A0881F2806D148492068884202D0454837
:10113000001FDFE74549464A511AE068884202D954
:1011400040481930D6E7E06810B94FF43470E060D9
:101150000821E068FFF792FBE060E068B0F5987F57
:1011600002D23848401EC5E7FFF762F8834612E016
:1011700038484068A0F1280536494868FFF760FC08
:1011800005F128013448FFF73FFC3048E968FFF7D4
:10119000B4FC0020E8602F48FFF764FC0028E7D08B
:1011A0002D48FFF75FFC28B1DFF898A00AF10A0A82
:1011B00000BF41E028484068A0F12805264948685A
:1011C000FFF73EFC5846FFF73BF8D5F810800822A1
:1011D0001E48E168FFF787FC06465EB9FFF728F86E
:1011E000834605F128011C48FFF70EFCDFF86CA0D0
:1011F00000BF21E032464046E16802F06DFA8146C8
:10120000C5F80090A0682862EE60E068A860002041
:10121000A861E8610220A880A088E8802068686151
:101220004FF0FF30E8630020A86420696862002066
:101230002865C7F800805DE75846FFF701F850467B
:1012400058E7000007020002E124000858060020C9
:101250000050002068000020600000200002000311
:1012600070B5044601F064F908B1184870BD18481B
:10127000008808B11748F9E714B900F0EBF8F5E772
:10128000FEF7D6FF05461449096801F1280001F070
:1012900093F911480068808820F004000E4909681D
:1012A00088800D490868214601F0B4FE0A480068AC
:1012B000808840F020000849096888802846FEF7A9
:1012C000BFFFFFF761FD0020D0E700000D02000323
:1012D000480000200E020002400000202DE9F041ED
:1012E00006464FF0FF3751480068864202D1504809
:1012F000BDE8F0814F480068864202D14C480D306D
:10130000F6E74D480068864202D349480D38EFE7BA
:10131000FEF78EFF8046C6EBC60000EB4000474953
:10132000096801EB8004A58805F0010018B1404F61
:101330000A3F00BF74E005F0100028B14048008863
:1013400010B100203E49088005F0040040B104F1CE
:10135000280001F031F9A08820F00400A08009E005
:1013600005F0080010B905F4005018B104F1280088
:10137000FFF766FB05F0600010B1204602F05AF955
:10138000A08820F00200A080A08840F00100A0808A
:101390004FF0FF30E0630020A06401F08FF928389F
:1013A00028494860207900F0100038B304F1280182
:1013B0002548FFF77BFB20480068C0EBC00000EB2E
:1013C00040001E49096801EB80001E49086008467C
:1013D00000680661A088096888801A49E068096881
:1013E000C8601849606A096848620120A0804046C8
:1013F000FEF726FF01F03EFB002079E70120A080E8
:1014000004F128011148FFF7FFFA1148E168FFF7DE
:1014100074FB0020E0604046FEF712FF002067E703
:101420004046FEF70DFF384662E7000050000020FE
:1014300014020002540000204C0000203C00002058
:1014400048000020400000206800002060000020CC
:101450005806002070B50024204800680069204923
:101460000968884201D31F4870BD1C480068007994
:1014700000F0040008B90020F6E7FEF7D9FE0546A3
:1014800016490968C88801F005F90446012C17D9E6
:101490001249096801F12800FFF7D2FA0F480068E5
:1014A000808840F004000D49096888800B4A126862
:1014B000D1880A4A126802F1280001F0A3F805E079
:1014C0002846FEF7BDFE07480930CDE72846FEF75F
:1014D000B7FEFFF759FC0020C6E7000040000020DF
:1014E0004C00002007020002014903C970470000B8
:1014F0008800002000BFFEE7704708B54FF4A060E9
:1015000000F064F825208DF8000001208DF801001E
:101510008DF802008DF80300684600F01BF808BD46
:1015200008B54FF4C06000F051F806208DF80000B7
:1015300001208DF801008DF802008DF80300684647
:1015400000F008F828208DF80000684600F002F846
:1015500008BD000070B5002100230F22C4781CB321
:10156000174C246804F4E064C4F5E064C4F3072174
:10157000C1F10404E3B20A4144789C40E1B28478AA
:10158000144021430C07210E0E4C05786155047858
:1015900004F01F050124AC4005786D11AD0005F184
:1015A000E025C5F8004109E0047804F01F05012496
:1015B000AC40054D0678761145F8264070BD000018
:1015C0000CED00E000E400E080E100E002490143AE
:1015D000024A1160704700000000FA050CED00E0BF
:1015E00029B1064A12680243044B1A6004E0034A18
:1015F00012688243014B1A60704700003038024085
:1016000029B1064A12680243044B1A6004E0034AF7
:1016100012688243014B1A60704700004438024050
:10162000F0B5002100220024022500260223324FBB
:101630003F6807F00C0121B1042905D0082937D1F2
:1016400005E02E4F076036E02D4F076033E02A4F4C
:101650003F1F3F68C7F38056274F3F1F3F6807F083
:101660003F036EB1264FB7FBF3F7DFF88CC0ACF148
:10167000040CDCF800C0CCF3881C07FB0CF40CE075
:101680001E4FB7FBF3F7DFF870C0ACF1040CDCF8C9
:1016900000C0CCF3881C07FB0CF4174F3F1F3F68BA
:1016A000C7F301477F1C7D00B4FBF5F7076002E03C
:1016B000124F076000BF00BF0F4F3F6807F0F001F7
:1016C0000909104F7A5C0768D74047600A4F3F68A6
:1016D00007F4E051890A0B4F7A5C4768D74087606E
:1016E000054F3F6807F46041490B064F7A5C476835
:1016F000D740C760F0BD0000083802400024F40065
:1017000040787D01140000207047000030B50022B1
:101710008B071C0F0F2303FA04F20B4B8C1053F8AA
:1017200024309343084C8D1044F8253023468C1008
:1017300053F824308C07240F00FA04F42343024C9E
:101740008D1044F8253030BD083801400CB500201C
:10175000019000904148006840F480303F490860A3
:1017600000BF3E48006800F4003000900198401C23
:101770000190009818B90198B0F5A04FF1D1374801
:10178000006800F4003010B10120009001E000205A
:1017900000900098012860D130484030006840F047
:1017A00080502E49403108602D48006840F4404088
:1017B0002B4908602948083000682849083108602A
:1017C0000846006840F4004008600846006840F49D
:1017D000A05008602348091F0860081F006840F0F7
:1017E0008070091F086000BF1C48006800F000708E
:1017F0000028F9D01A48006840F480301849086081
:1018000000BF1748406800F480300028F9D0144821
:10181000006840F400301249086000BF104840687A
:1018200000F400300028F9D040F205700E4908603D
:101830000A480830006820F00300084908310860B1
:101840000846006840F00200086000BF0348083006
:10185000006800F00C000828F8D10CBD00380240E8
:1018600000700040195A4007003C024010B508487B
:10187000006810B101F070FE08E00648D0E90030C1
:101880005A1C40F100000349C1E9002010BD0000CE
:10189000A00000208800002010B51248006840F029
:1018A00001001049086000200E49083108600D4809
:1018B00000680D4908400B4908600C48091D086084
:1018C000081F006820F48020091F086000200549D7
:1018D0000C310860FFF73AFF4FF0006004490860E0
:1018E00010BD000000380240FFFFF6FE103000245B
:1018F00008ED00E0002416E000210B480068FFF727
:1019000063FA044614B909A000F0D4F800210C4889
:101910000068FFF759FA044614B90AA000F0CAF8A3
:101920001420FFF79DFCE7E7F0000020B4A5B7A264
:10193000D6D0B6CFB5C4CAC7204B455931210A000D
:10194000F4000020B4A5B7A2D6D0B6CFB5C4CAC79C
:10195000204B455932210A0021B1828942F40052BC
:10196000828104E082894DF6FF731A4082817047BC
:1019700002460020B1F5007F00D100BF13880B4064
:101980000BB1012000E000207047F0B503460024B1
:1019900000260025002040F66A17B94200D100BF9A
:1019A0001846C1F3421401F01F06012707FA06F595
:1019B000012C01D10C3004E0022C01D1103000E0E8
:1019C00014301AB107682F43076002E00768AF437D
:1019D0000760F0BD2DE9FF4705460E460024A146ED
:1019E00000BFA046B08900B100BF2C8A24F4405447
:1019F000F08804432C82AC8941F20C608443B088A7
:101A000031890843718908430443AC81AC8A24F4CA
:101A10004074B0890443AC826846FFF701FE204859
:101A2000854202D01F48854202D1DDF80C9001E0CA
:101A3000DDF80890A88900F4004040B109EBC90026
:101A400000EB091031684900B0FBF1F707E009EB42
:101A5000C90000EB091031688900B0FBF1F7642080
:101A6000B7FBF0F004012009642101FB1078A8897C
:101A700000F4004040B1322000EBC800B0FBF1F0B0
:101A800000F00700044308E0322000EB0810642156
:101A9000B0FBF1F000F00F0004432C81BDE8FF879C
:101AA0000010014000140140C1F308028280704719
:101AB00000BFFEE70FB4054B10B503A9044A029816
:101AC00000F018F810BC5DF814FB00004D1F000872
:101AD000F800002002E008C8121F08C1002AFAD14D
:101AE00070477047002001E001C1121F002AFBD19E
:101AF000704700002DE9FF4F8DB00F4605460026C8
:101B000006E025280BD0DDE90F1290476D1C761CEE
:101B100028780028F5D111B03046BDE8F08F0024B8
:101B2000A246A1460122E94900E0044315F8013F1D
:101B3000203B02FA03F00842F7D128782A2810D077
:101B40006FF02F022878A0F13001092914D80AEB90
:101B50008A0102EB410144F0020400EB010A6D1C12
:101B6000F0E701CF5FEA000A03D544F40054CAF15C
:101B7000000A44F002046D1C28782E2817D115F8AD
:101B8000010F44F004042A280ED06FF02F022878A9
:101B9000A0F1300109290AD809EB890102EB4101C2
:101BA00000EB01096D1CF2E757F8049B6D1C2878C7
:101BB0006C280FD006DC4C2817D068280DD06A2876
:101BC00014D104E0742810D07A280FD10DE044F429
:101BD00000140AE044F4801401E044F440146978ED
:101BE000814202D104F580146D1C6D1C28786E288A
:101BF0001ED00CDC632830D004DC00288BD05828A1
:101C000011D19FE0642867D069280CD164E0732863
:101C10002DD004DC6F2872D0702804D194E0752890
:101C20006ED078286DD0DDE90F129047761C4BE11D
:101C3000C4F30250022806D0032809D0042801CF9B
:101C400009D0066040E101CFF117C0E900613BE136
:101C500001CF068038E1067036E117F8040B8DF8E5
:101C6000000000208DF80100EB46012003E057F84A
:101C700004BB4FF0FF3061074FF0000102D40DE0CC
:101C800008F10101884649450FDA8045F8DB1BF869
:101C900008100029F4D108E008F1010188468142CA
:101CA000FADB1BF808100029F6D1DDE90F23AAEBB7
:101CB00008008146214600F031F9304400EB080667
:101CC00004E0DDE90F121BF8010B9047B8F10108A1
:101CD000F7D221464846F2E00A21C4F302524FF0FF
:101CE000000B0891022A04D001CFC117032A09D0A2
:101CF0000AE0FF1D27F00707F7E8020108E02CE0E3
:101D00001EE01FE000B2C117042A01D140B2C11782
:101D1000021E71F1000206DA0023D0EB030063EB30
:101D200001012D2202E0220504D52B228DF824206A
:101D3000012203E0E20701D02022F7E7904653E0BA
:101D40000A210BE0102109E010214FF0000B44F0B4
:101D500004044FF00809089103E008214FF0000B3C
:101D60000891C4F30252022A04D001CF0021032AB1
:101D700006D006E0FF1D27F00707F7E8020103E0A1
:101D800080B2042A00D1C0B24FF0000822072BD540
:101D90002A78702A07D0DDF820C08CF0100C5CEA9D
:101DA0000B0C05D00EE040228DF82420012208E023
:101DB00050EA010306D030238DF824308DF8252019
:101DC00002229046089B83F0080353EA0B030BD1D1
:101DD00050EA010201D1620706D530228DF8242095
:101DE0004FF00108A9F101092A78582A04D038A235
:101DF0000B9208AA0A920BE03AA2F9E75B46089A0E
:101E0000FEF758FA0B9B9B5C0A9A521E0A921370BB
:101E100050EA0102F2D10A98ADEB000000F1200B6C
:101E2000600702D524F4803401E04FF00109D94560
:101E300002DDA9EB0B0000E0002000EB0B014144A8
:101E40000890AAEB010AE00306D4DDE90F2321463E
:101E5000504600F063F806444FF0000908E009A975
:101E600011F80900DDE90F12904709F10109761C0C
:101E7000C145F4DBE0030CD5DDE90F2321465046D4
:101E800000F04CF8064404E0DDE90F1230209047E2
:101E9000761C0899481E08900029F5DC08E00A988D
:101EA0000A990078491C0A91DDE90F129047761CC7
:101EB000BBF10001ABF1010BF1DC21465046DDE93D
:101EC0000F2300F019F806446D1C21E609280100D3
:101ED00030313233343536373839616263646566A0
:101EE0000000000030313233343536373839414262
:101EF00043444546000000002DE9F041044600251A
:101F00001E461746880404D405E039462020B04711
:101F10006D1C641EF9D52846BDE8F0812DE9F0411D
:101F2000044600251E469046C80301D5302700E030
:101F30002027880404D505E041463846B0476D1C8B
:101F4000641EF9D52846BDE8F081000070B504464E
:101F50000D46E1B20548FFF7A7FD00BF8021034809
:101F6000FFF706FD0028F9D0204670BD00100140A3
:101F700010B50024FEF77AFA0CA0FFF79BFDFEF7E0
:101F8000B7FC04462CB1214610A0FFF793FD0120B9
:101F900010BDFEF715FA2CB1214616A0FFF78AFDF9
:101FA0000120F5E7FFF72CF800BFFEE7D5E2CAC72E
:101FB000D2BBB8F6B7C7BDD3B9DCCABDD6D0B6CF91
:101FC000B9DCC0EDCAB5D1E9210A00004C697465DD
:101FD0004F5320BACBD0C4B3F5CABCBBAFCAA7B06D
:101FE000DCA3A1CAA7B0DCB4FAC2EB203078255834
:101FF0000A0000004170705461736B437265617434
:102000006520B4B4BDA8C8CECEF1CAA7B0DCA3A1E8
:10201000CAA7B0DCB4FAC2EB20307825580A000019
:1020200030B585B00446254614216846FEF78CF984
:102030006946204600F022FA012801D105B030BDE2
:1020400000BFFBE730B54C09031D03EB84020368B6
:102050008B4200D830BD01F01F050124AC4013684D
:10206000A343136000BFF5E7F0B5034618681F30BF
:102070004609191D0025002219E00868401C00B916
:1020800013E00868C44301E064086D1C002CFBD118
:102090006F1E4FF0010C0CFA07FC086840EA0C00B8
:1020A000086005EB4210401EF0BD521C091DB242F3
:1020B000E3D34FF0FF30F7E710B5024610688842CF
:1020C00001D8002010BD4B09101D50F8230001F06D
:1020D0001F040123A340184008B10120F2E70020AB
:1020E000F0E701460868704770B505460C462C605D
:1020F00004F11F00C108281DFEF726F904F01F0097
:1021000040B104F01F014FF0FF3088406209291DE3
:1021100041F8220070BD00002DE9F05F81460E46B7
:102120000024A2464F4617B90020BDE8F09FFEF7F5
:102130007FF88346F01C20F003067D6819E068688C
:10214000C0F38070A0B9686820F04040B0420FD35F
:102150003CB1606820F04040696821F0404188420D
:1021600006DD2C46606820F04040B04200D133E0EC
:102170002D68002DE3D14CB900BF30A0FFF79AFCC9
:10218000314630A0FFF796FC00BF48E0606820F0C1
:102190004040801B08281ED904F108008519686892
:1021A00020F0804068606068801B0838696860F3D0
:1021B0001D0169602C602146384600F051F98046C7
:1021C000B8F1000F01D17D6001E0C8F800506068EF
:1021D00066F31D00606000BF606820F00040606032
:1021E000606820F0804000F18040606004F1080ADF
:1021F0002048016806F1080008441E4908600846A6
:1022000000681D490968884203D91A4800681A49BC
:1022100008601A480068401C1849086000BF7868C8
:10222000406820F04040B0F5806F02DA3846FFF792
:10223000F7FE5846FEF704F8504676E75B455252E3
:102240005D20000074686572652773206E6F7420CE
:10225000656E6F7567682077686F6C6520746F2096
:10226000616C6C6F63202578204279746573210A54
:1022700000000000D8000020DC000020D00000207A
:102280002DE9F04780460F4614460025B8F1000FAF
:1022900005D027B1042C02D3601E204010B10020CD
:1022A000BDE8F0873819A0F1040949464046FFF718
:1022B00033FF054675B1601E2844611E20EA010601
:1022C000B54200D107E0A6EB050A4AF0004A46F8FD
:1022D00004AC354600BF2846E2E700002DE9F05F78
:1022E00081460E464FF0010A4D4605B116B9012050
:1022F000BDE8F09F56F8048C08F0004018B128F0B3
:102300000048A6EB08062868B04203D86868083081
:10231000B0420AD200BF38A0FFF7CCFB314638A04C
:10232000FFF7C8FB00BF0020E2E7FDF781FF83460F
:10233000A6F108046068C0F3807088B12868A042E4
:1023400011D02068296888420AD32168686808305B
:10235000814205D82846216800F082F8A04202D0C8
:102360004FF0000A43E0606820F0804060606068E1
:1023700020F04040083027490968884208D8606842
:1023800020F04040083023490968081A21490860B4
:1023900000E02468206828B120684068C0F380709D
:1023A0000028F6D00BE06168786808300144606866
:1023B00061F31D0060606868B84200D16C6021461E
:1023C000284600F04DF8071E04D07868C0F38070EE
:1023D0000028E8D02146284600F042F8071E00D029
:1023E0003C600D480068401C0B49086000BF58461F
:1023F000FDF726FF50467BE75B4552525D2000000B
:1024000030782578206F7574206F662072616E6752
:1024100065210A00D8000020D40000202DE9F041F9
:1024200005460E462F460FB1582E02D80020BDE8B3
:10243000F08131462846FDF787FFBE6005F1500464
:102440003C607C60606820F080406060002020601C
:10245000A6F15800616860F31D0161600120E6E7A4
:1024600002465068884201D100207047486820F039
:10247000404301F108001844F7E7000070B5044636
:102480000025002223460BB9012070BD09B90120A7
:10249000FBE75A6809E05068C0F3807020B15068CB
:1024A00020F04040083005441268002AF3D19868B3
:1024B000A84201D20120E8E74D6098680860D1E9A0
:1024C0000006801B886004480068C86003480068F4
:1024D00008610020D9E70000D0000020D4000020CF
:1024E00000BFFEE710B586B018216846FDF72CFF47
:1024F0000A4800904FF4A060039009A004901F20A8
:10250000ADF8040069460948FEF79CFD044614B185
:10251000204606B010BD0020FBE70000E1240008C3
:1025200049646C65436F72653030300050000020A4
:1025300000BFEFF30580704710B500240348044A3C
:10254000111AFEF7F5FA0446204610BD5806002081
:102550000050002070B51448FEF79FFA4FF4F07158
:1025600012480068FEF7AAFA114908600846006898
:1025700008B9104870BD002411E004EB44000C4978
:10258000096801EBC0056C600020287005F10806A1
:10259000054908683146FEF73EFA00BF641C142C5A
:1025A000EBD30020E6E70000B0000020E8000020A8
:1025B000AC000020001D000270B5044600BFD4E945
:1025C00000010860D4E900104860002060602060CD
:1025D00000BFA4F12805E988084A126802EBC1008F
:1025E000FEF738FA40B1A9794FF00040C8400449DD
:1025F000096881430248016070BD0000240000208A
:102600002800002070B504460D460E49096801EB0C
:10261000C500FEF71FFA38B14FF00040E8400A4904
:1026200009680843084908600648006800EBC501CE
:10263000086842686260206042681460446000BFBD
:1026400000BF70BD240000202800002070B50024C9
:1026500000254FF4807529460C480068FEF72EFAD5
:102660000B4908600846006800B970BD00200446A8
:1026700008E00749096801EBC4004060006000BF42
:10268000601C0446202CF4D300BFEEE7E8000020D5
:1026900024000020014600200022074B1B6803EBAA
:1026A000C1035A6801E0401C5268034B1B6803EBEE
:1026B000C1039342F7D1704724000020002107484E
:1026C000006848B105480068B0FA80F10448006825
:1026D00000EBC100406870470020FCE728000020A4
:1026E000240000202DE9F04704460E461746984680
:1026F0004FF00009CA4606F0030020B1012810D0AF
:10270000032828D119E0B4F80CA0A089401CE18866
:10271000884202D10020A08102E0A089401CA08153
:1027200023E0A08918B9E088401EA08102E0A089BA
:10273000401EA081B4F80CA017E0B4F80EA0E08908
:10274000401CE188884202D10020E08102E0E0895B
:10275000401CE08109E000BF1BA0FFF7ABF91CA003
:10276000FFF7A8F900BFBDE8F08700BF2189206806
:102770000AFB010506F0040040B106F0010010B9A3
:10278000286838601DE0386828601AE006F001000B
:1027900058B92089284450F8049C4A4629463846AE
:1027A000FDF7B9FDC8F800900BE039462846D8F887
:1027B0000020FDF7B0FD20892844D8F8001040F82B
:1027C000041C00BFCFE700005B4552525D200000B3
:1027D000696E76616C6964207175657565206F70CE
:1027E00065726174652074797065210A00000000CB
:1027F00070B54FF4DC7116480068FEF75FF91549B3
:1028000008600846006808B9134870BD4FF4DC71D1
:1028100010480068FDF798FD1048FEF741F90024C4
:1028200012E004EB440000EBC4000A49096801EB24
:1028300080056C8105F11C06084908683146FEF7E1
:10284000F1F800BF601C84B20A2CEADB0020DCE750
:10285000E8000020B800002001060002BC000020B3
:102860002DE9FF4F83B081460E469846DDF840A023
:102870000020019006F00105FDF7DAFC029009EB5B
:10288000490000EBC9005449096801EB8004A088A5
:1028900010B95248019099E006F0010048B920892A
:1028A000001FD8F80010814203D24C481530019027
:1028B0008CE006F0010048B12089001FD8F8001014
:1028C000814203D945480B3001907FE004F11000AC
:1028D00030F8150090BBBAF1000F09D106F00100E5
:1028E00010B93E48133001E03C480C3001906DE0D7
:1028F0003B48008818B13948001F019066E039480C
:10290000076804F1140101EBC50052464FF4005171
:1029100000F0D8FD0298FDF793FCFEF735FAFDF7BD
:1029200087FC0290387900F0400090B1B88820F020
:102930004000B8802948C01E019047E0FFE704F13D
:10294000100030F81500401E81B204F1100020F88C
:102950001510434631462046059AFFF7C3FE0DB9D0
:10296000012200E0002204F1140101EBC200FEF795
:1029700081F8C0B90DB9012100E0002104F1140073
:1029800000EBC1004068A0F1280B4FF400515846FD
:1029900000F0BEFD0298FDF753FCFEF7F5F90020AC
:1029A00007B0BDE8F08F0DB9012100E0002104F16E
:1029B000100030F81100401C81B20DB9012200E076
:1029C000002204F1100020F8121000BF0298FDF759
:1029D00037FC0198E4E70000B80000200A06000276
:1029E00048000020400000202DE9F04105460E4639
:1029F00014461F460A2D02D30A48BDE8F08106B1ED
:102A000014B90848401CF8E7206810B90548801C34
:102A1000F3E72FB1FFF78CFD10B102480A30ECE765
:102A20000020EAE70E0600022DE9F04104460D46BB
:102A300016461F460A2C02D30A48BDE8F08115B994
:102A40000848001DF9E7306810B90648401DF4E752
:102A50002FB1FFF76DFD10B10248401FEDE70020D8
:102A6000EBE700000E0600021020014908607047E5
:102A70004C00002010B5FDF7E6FB10BD2DE9F84F26
:102A8000074688469146B9F1000F02D12248BDE8B9
:102A9000F88F474505DD00BF1F4EB61DDFF87CA04F
:102AA0002FE0FDF7C5FB83461D48FDF7EBFF40B166
:102AB0005846FDF7C5FB00BF174E761CDFF85CA03B
:102AC0001FE01748446800BFD4E900010860D4E95A
:102AD0000010486000206060206000BFA4F108057D
:102AE0006F8001202880A5F8048005F10800FDF71B
:102AF000DAFFE888C9F800005846FDF7A1FB00207E
:102B0000C5E700BF0020034632465146009005A0AD
:102B1000FDF7CCFE3046BAE702070002F8C3B2A1C7
:102B2000C40000206F735F756E73706563696669BA
:102B3000635F66696C65000070B51348FDF7B3FF0D
:102B40004FF4A07111480068FDF7B8FF1049086004
:102B50000846006808B90F4870BD002410E00C4812
:102B6000006800EB0415EC800020288005F10806C1
:102B7000054908683146FDF75CFF00BF601C84B260
:102B8000142CECDB0020E7E7C4000020E800002064
:102B9000CC0000200007000230B50446A068FFF713
:102BA00063FA0546002D01DA002030BDD4E900109B
:102BB00001FB0500F9E72DE9F04104460D46A84662
:102BC0006068A8EB00062068B6FBF0F72068B6FB4B
:102BD000F0F100FB116048B9A068FFF782FAB84233
:102BE00004D93946A068FFF767FA10B90020BDE89C
:102BF000F0813946A068FFF725FA0120F7E72DE9B3
:102C0000F04781460E4615461F4607F11F00042176
:102C100001EBD00808EB0500401E691E20EA010800
:102C20007019401E20EA010606FB07FA08F10C00A5
:102C300000EB0A014846FFF76FFA044654B12660DC
:102C400004F10C00A060A068404460603946A068B0
:102C5000FFF74AFA2046BDE8F08702464DF6DE60EF
:102C6000108091700020D070101D7047014601F156
:102C7000100070472DE9F04780460E460027404679
:102C8000FFF7F4FF0546B9460024802E02D9002044
:102C9000BDE8F087002439E005EB04100068B0427D
:102CA00033D3FDF7C5FA824605EB0410806805EBC7
:102CB00004114968884204D35046FDF7C1FA002048
:102CC000E6E705EB0410C06820B95046FDF7B8FAF6
:102CD0000020DDE705EB0419D9F80C00FFF75CFFD5
:102CE00007466FB105EB041001683846FFF7B5FFE2
:102CF000074605EB04108068401C05EB0411886052
:102D00005046FDF79DFA3846C2E7641C042CC3D335
:102D10000020BDE72DE9F05F81460F464846FFF7EA
:102D2000A5FF05464FF0000A00243E1F30884DF6EF
:102D3000DE61884202D00020BDE8F09F00241FE041
:102D4000B07805EB04110968884218D8FDF770FACD
:102D5000834605EB04183146D8F80C00FFF72BFF2B
:102D6000012807D1824605EB04108068401E05EB60
:102D7000041188605846FDF763FA5046DCE7641C8E
:102D8000042CDDD30020D7E72DE9F04781464846E3
:102D9000FFF76CFF0546002400270026A04600BF71
:102DA00020E0102000FA04F64001B0FBF6F805EB35
:102DB0000410066005EB0410C0F80480002005EB49
:102DC0000411886005EB0410C06808B17F1C08E09E
:102DD00043460422311D4846FFF711FF05EB04115D
:102DE000C860641C042CDCD317B90120BDE8F0874F
:102DF0000020FBE72DE9F84300201D4908604FF44F
:102E0000C07841461B480068FDF758FE044614B9D7
:102E10001948BDE8F88341462046FDF795FA174862
:102E20000460174804600020E0802546183401261D
:102E300005E0E6802C602546701C86B21834102E02
:102E4000F7DB082000230F4A102100901846FDF7F9
:102E5000F5FE074617B10848001DDAE700F05CF8F8
:102E6000074617B10448401DD3E70020D1E7000012
:102E700038000020E8000020070300023000002096
:102E8000340000202C00002010B500220021C3686F
:102E900083600F4B19680AE08B688468A34200D9ED
:102EA00007E083688C681B1B83600A460968002959
:102EB000F2D100BF016019B18B6884681B1B8B6065
:102EC00012B9034B186000E010600223037110BDBB
:102ED000380000200EB50820009000BF4FF0FF33EF
:102EE0006A4601A90B480068FDF718FF0446002C4C
:102EF000F4D100980828F1D101980028EED0FEF70F
:102F0000F3FA0546DDE901108847FEF7EDFA401BAC
:102F1000E4E700002C00002010B586B018216846B8
:102F2000FDF712FA084800904FF43470039007A0A0
:102F300004900020ADF8040069460748FEF782F8C7
:102F40000446204606B010BDD52E00085377745FA6
:102F50005461736B00000000540000201CB51D4834
:102F6000046832E01B4920680860606900902069AD
:102F7000019000230822694617480068FDF7E9FE22
:102F80006079A0B9204600F029F8E0884FF6E0719A
:102F9000884203DAE0881030E08014E0E088C1174E
:102FA00000EB11710911A0EB0111E1800BE06079D8
:102FB000012803D12046FFF767FF04E0607902286B
:102FC00001D1012020710348046814B1A0680028D1
:102FD000C8D01CBD380000202C000020034909681F
:102FE000016002490860002101717047340000202F
:102FF00010B50748006848B1054800688068401E61
:1030000003490968886008B9FFF7A8FF002010BDD0
:10301000380000202DE9F0470446884608F01F07D5
:103020004FEA581907B101E0A9F10109A06B00F0BE
:10303000784040EA0900A06325488088074407F0EB
:103040001F07A06B67F3DF60A0632148006800EBF7
:10305000C7067068B04205D104F130013046FDF773
:1030600025FD33E07068A0F1300500BFA86B20F0AB
:103070007840A16B21F0784188420CD8A06B20F0F9
:103080007840A96B21F07841401AA16B01F078419A
:103090000843A0630CE0A86B20F07840A16B21F0FE
:1030A0007841401AA96B01F078410843A86306E013
:1030B000686BA0F1300505F13000B042D6D100BFF9
:1030C00004F1300105F13000FDF7F0FCBDE8F087B8
:1030D0007000002070B50546C5EBC50000EB400050
:1030E0000649096801EB80046169206A884700206D
:1030F000034908802069FEF7F1F870BD3C0000200C
:103100004800002072B600BFFEE7000070B54048DE
:103110000068401C542100FB01F631463D48006820
:10312000FDF7CCFC3C4908600846006808B93B48FC
:1031300070BD314638480068FDF706F93848FDF79C
:10314000A9FC3848FDF7A6FC3748FDF7A3FC00248E
:1031500020E00120C4EBC40101EB41012E4A1268BA
:1031600002EB81018880C4EBC40000EB40002A49D7
:10317000096801EB80000461C4EBC40000EB40006F
:10318000254A126802EB800000F128012548FDF76E
:103190008DFC641C0F2CDCD92448002101604160A7
:1031A0001B480068C0EBC00000EB40001A490968EA
:1031B00001EB80001D490860084600680461112089
:1031C00009688880202019490968C880FFF73EFAFD
:1031D0004FF4807631460F480068FDF76FFC0546D6
:1031E0000DB90E48A4E731462846FDF7ADF8104862
:1031F000056000200E498880002404E02846FDF781
:1032000049FC641C0835202CF8D3002090E700000E
:103210004C000020E80000203C00002000020003D9
:1032200058000020600000206800002040000020BE
:103230007000002010B54FF4AB710648FDF784F81C
:103240000A200449487004480449086000200449E1
:10325000086010BDFC000020413300087C00002005
:10326000800000202DE9F041002734498988481C5E
:10327000C11700EBD1614911A0EB41112F4A918098
:10328000104600681146898800EBC1056868A842AD
:1032900001D1BDE8F0816868A0F1300443E0A68860
:1032A000A06B20F0784018B1A06B401EA0633EE0F8
:1032B00004F13000FDF7C4FB06F0080058B1A08807
:1032C00020F00800A08004F12800FDF7B9FB0020E1
:1032D000A061E06117E006F4806020B1A08820F4CE
:1032E0008060A0800FE006F4005040B104F1280097
:1032F000FDF7A6FBA08820F40050A08003E0A08882
:1033000020F02000A08006F0020048B9A08840F01C
:103310000400A080E18804F12800FFF773F9012779
:103320006868A0F1300404F13000A842B7D100BFB2
:103330000FB1FDF729FD00BFABE7000070000020D2
:1033400010B53B480068C0680068B0F1CC3F0DD0B4
:1033500000BF38A0FEF7AEFB35480068026934486C
:103360000068416A35A0FEF7A5FB00BF3048406801
:1033700000682F494968C96888420BD92C484068C1
:10338000C0682B494968896808442949496809681F
:1033900088421BD200BF27A0FEF78CFB2448406860
:1033A000026923484068416A2EA0FEF783FB00BFF4
:1033B00000BF20A0FEF77EFB1D484068C2681C4885
:1033C0004068016830A0FEF775FB00BF18484068F0
:1033D000008A81B239480278801C20F81210144A01
:1033E0005268516A821E1378163202EB4310202273
:1033F000FCF791FF002131480278163000EB4210B3
:10340000C1772E480078401CC0B22C4908700A28A9
:1034100006D1002008700846407840F080004870CF
:103420002748006810B126480068804710BD00009A
:10343000400000205B4552525D200000435552522F
:10344000454E54207461736B2049443A2025733AE9
:10345000256420737461636B206F766572666C6F90
:1034600077210A0048494748455354207461736BDB
:103470002049443A2025733A256420535020657230
:10348000726F72210A000000484947484553542092
:103490007461736B20537461636B506F696E7465F4
:1034A000723A203078257820546F704F66537461DB
:1034B000636B3A20307825780A000000FC00002079
:1034C000800000202DE9F04107460E4615460F48C2
:1034D000046804F12800FFF76FF8A08820F00400CA
:1034E000A08004F12808A0883043A08041463846D7
:1034F000FDF7DCFA681C38B1A08840F04000A080DD
:1035000029462046FFF786FDBDE8F08140000020F7
:1035100070B504460D4604F12800FDF791FAA08825
:10352000A843A080207900F0400030B1204600F090
:1035300081F8A08820F04000A080207900F00200EF
:1035400040B9A08840F00400A080E18804F1280080
:10355000FFF758F870BD000010B50848D0E90030FA
:103560005A1C40F100000549C1E9002000F086F82E
:10357000FFF778FEFFF73CFD10BD0000880000203B
:1035800070B52548006828B100BF23480068B0F531
:103590007A7F01D2214870BD1F4800684FF47A71CC
:1035A000B0FBF1F01E49086000211E4A1160516015
:1035B000194800684FF47A72B0FBF2F1481EB0F17E
:1035C000807F01D301201BE0481E4FF0E0225061B4
:1035D00050170F22002804DB1407250E124C255427
:1035E00006E01407260E114C00F00F052D1F66553E
:1035F00000BF00204FF0E022906107201061002002
:103600000346012B02D10548801CC4E7012008496C
:1036100008600020BFE70000000000200004000256
:10362000980000208800002000E400E018ED00E091
:10363000A00000202DE9F0410446A06BC70E0E4803
:10364000006800EBC706606BB0420ED0606BA0F163
:103650003005A86B20F07840A16B21F07841084438
:10366000A96B01F078410843A86304F13000FDF72D
:10367000E7F9BDE8F08100007000002010B50F48A8
:1036800000680F49096888420BD00D4800680B4953
:1036900008600846C1880B4800880844401E074956
:1036A0008880064881880748008880B2814204D11A
:1036B000002002490860FDF7CDFE10BDA4000020E7
:1036C00040000020880000200020024908600A20F5
:1036D000C8807047A40000202DE9F04106460F463F
:1036E00015464FF0CA3239462846FCF726FE4FF001
:1036F000CC302860E819A0F144044FF00430206079
:103700004FF0053060604FF00630A0604FF007309A
:10371000E0604FF0083020614FF0093060614FF0F9
:103720001030A0614FF01130E0610020206266622D
:103730004FF00130A0624000E0624FF003302063A0
:103740004FF0123060630548A0630548E0634FF016
:10375000807020642046BDE8F0810000053100083B
:10376000D53000088437000800000020FC0000006D
:10377000D41A000880380008FC0000205C05000016
:10378000E41A00080095BA0A0000000000000000DA
:1037900001020304060708090000000001020304F7
:1037A00001020304060708090000000000000000F1
:1037B0000000000000000000000000000000000009
:1037C00000000000000000000000000000000000F9
:1037D00000000000000000000000000000000000E9
:1037E00000000000000000000000000000000000D9
:1037F00000000000000000000000000000000000C9
:1038000000000000000000000000000000000000B8
:1038100000000000000000000000000000000000A8
:103820000000000000000000000000000000000098
:103830000000000000000000000000000000000088
:103840000000000000000000000000000000000078
:103850000000000000000000000000000000000068
:103860000000000000000000000000000000000058
:103870000000000000000000000000000000000048
:04000005080001AD41
:00000001FF
