:020000040800F2
:100000000000032009000008DFF81400016841F433
:100010007001016072B60348804703480047000042
:1000200088ED00E03D0100082D000008DFF810D049
:1000300000F008F80048004799010008AFF300807D
:1000400000000320064C074D06E0E06840F0010385
:1000500094E8070098471034AC42F6D3FFF7EAFF64
:100060009C0100089C0100081CB500210191009131
:100070002E4A106840F4803010604FF4A04310689E
:1000800000F4003000900198401C0190009810B9D5
:1000900001989842F3D11068800302D501200090A6
:1000A00000E00091009801283FD1204840300168CD
:1000B00041F0805101601E49086840F440400860EA
:1000C0001A48083003680360036843F40043036080
:1000D000036843F4A0530360041F164B23601368A6
:1000E00043F08073136013689B01FCD50A6842F4E7
:1000F00080320A604A68D203FCD50A6842F40032B2
:100100000A604A689203FCD50B4A40F205711160FF
:10011000016821F003010160016841F00201016002
:100120000168C1F381010229FAD11CBD00380240E7
:1001300000700040195A4007003C024010B51248B8
:10014000016841F4700101601048016841F001014B
:1001500001600E4A00210832116002680C4B1A40FF
:100160000260031D0B4A1A60026822F480220260BA
:1001700006480C300160FFF777FF03494FF000603D
:100180008039086010BD000088ED00E000380240B2
:0C019000FFFFF6FE103000240020704736
:040000050800002DC2
:00000001FF
