:020000040800F2
:100000000000032009000008DFF81400016841F433
:100010007001016072B60348804703480047000042
:1000200088ED00E04D1500082D000008DFF810D025
:1000300000F0E2F800480047D11B0008AFF3008051
:100040000000032072B62C482C49026841EA0201E4
:1000500001602B484FF0010101602A4841680160AE
:1000600001688A884FF0100342EA03028A80D1F8BF
:1000700000C00CF1240CBCE8FF008CF309884FF0A1
:10008000020C8CF31488AE4662B63047EFF3108052
:1000900072B67047EFF3108062B6704780F3108835
:1000A000704719484FF0805101607047EFF3108C92
:1000B00072B6164A126822B12DE900509047BDE889
:1000C0000050EFF3098020E9F01F0E4D4FF01008AB
:1000D0002E683060B78827EA0807B780686828600C
:1000E000878847EA080787800168B1E8F01F81F335
:1000F00009888CF31088704720ED00E00000FFFFB6
:100100005C0400206004002004ED00E044040020B2
:100110002DE9F05F0546002092469B46884606463C
:10012000814640241BE0284641464746224600F0CF
:1001300053F853465A46C01A914110D311461846F7
:10014000224600F03AF82D1A67EB01084F46224686
:100150000120002100F031F817EB00094E41201E6C
:10016000A4F10104DFDC484631462A464346BDE897
:10017000F09F40EA01039B0703D009E008C9121F62
:1001800008C0042AFAD203E011F8013B00F8013B51
:10019000521EF9D27047D2B201E000F8012B491E7D
:1001A000FBD270470022F6E710B513460A46044614
:1001B0001946FFF7F0FF204610BD202A04DB203A45
:1001C00000FA02F1002070479140C2F1200320FAAA
:1001D00003F3194390407047202A04DB203A21FAA8
:1001E00002F00021704721FA02F3D040C2F1200250
:1001F0009140084319467047064C074D06E0E068F9
:1002000040F0010394E8070098471034AC42F6D35D
:10021000FFF710FF503000088030000870B58C18D0
:1002200010F8015B15F0070301D110F8013B2A110A
:1002300006D110F8012B03E010F8016B01F8016BF7
:100240005B1EF9D12B0705D40023521E0DD401F8F3
:10025000013BFAE710F8013BCB1A921C03E013F8BC
:10026000015B01F8015B521EF9D5A142D8D30020F1
:1002700070BD000038B51749002000F039FA10B100
:1002800015A001F047FA13490020091D00F030FACB
:1002900010B11BA001F03EFA00F068F810B122A0E6
:1002A00001F038FAFFF7F2FE05460024254B2246FE
:1002B00021460620009400F035FA0022224B114618
:1002C0002820009400F02EFA2846BDE83840FFF7B9
:1002D000E5BE0000F004002042696E61727953654A
:1002E0006D315F48616E646C6520B6FED6B5D0C5D1
:1002F000BAC5C1BFB4B4BDA8CAA7B0DC210A00000A
:1003000042696E61727953656D325F48616E646CEB
:100310006520B6FED6B5D0C5BAC5C1BFB4B4BDA8B8
:10032000CAA7B0DC210A0000546573745F5461737E
:100330006B20C8CECEF1B4B4BDA8CAA7B0DC210AE8
:10034000000000004D0400087104000810B54FF4CF
:10035000407001F003F800F093F900F023F800F08A
:1003600073F9BDE8104000F0E1B8000000B587B0B7
:100370000520ADF8080006A00590084801904FF44C
:100380008060049001A9064800F074FD07B000BD2C
:10039000546573745F5461736B0000009D15000811
:1003A000EC04002070B586B00121084600F0E0FFA3
:1003B0000121102000F0EAFF00248DF816400120F2
:1003C0008DF8170002258DF815508DF81450400255
:1003D00004901C4E04A9304600F0E8F88DF8145043
:1003E0006902049104A9304600F0E0F807220A21CE
:1003F000304600F019F907220921304600F014F9BF
:100400004FF4E1300090ADF80440ADF80640ADF88F
:100410000840ADF80C400C20ADF80A000A4C6946C3
:10042000204601F015F900F039FF012240F2255174
:10043000204601F0F2F80121204601F0DBF806B079
:1004400070BD0000000002400010014010B5012006
:1004500000F028F8002808D00448406800F08EFC1E
:10046000BDE81040012000F017B810BDEC040020DA
:1004700010B54FF40054204600F014F8002808D0BE
:100480000448806800F07AFC2046BDE8104000F087
:1004900003B810BDEC04002001490860704700005B
:1004A000143C014001460020024A12680A4200D072
:1004B00001207047143C014030B51B4A8379016824
:1004C000002B2AD013688B431360111D0B6804683E
:1004D000A3430B60017911440B68046823430B604C
:1004E000114C08342168036899432160231D196861
:1004F0000568A94319604179102905D011440A689B
:10050000006802430A6030BD21680268114321601F
:10051000196800680143196030BD00791044026811
:100520008A43026030BD0000003C01407FB50121DC
:10053000052000F01DFF0121880300F027FF00F0D7
:10054000C0FE0124029400258DF80C508DF80F5048
:1005500002A9144800F02AF80021084600F076FFAE
:1005600000948DF8045008208DF805008DF80640A1
:100570006846FFF7A1FF6603029602A90A4800F049
:1005800015F80D21022000F061FF00968DF804504F
:100590000C208DF805008DF806406846FFF78CFFAB
:1005A0007FBD000000000240000802402DE9F0413C
:1005B000002201274FF0030C07FA02F50B682B40CD
:1005C000AB422CD1066853000CFA03F4A643066034
:1005D0000E79D0F800809E4046EA080606600E7943
:1005E000012E01D0022E12D18668A64386604E7974
:1005F000D0F808809E4046EA080686604668AE430A
:10060000466045688E799640B6B235434560C56808
:10061000A543C560CC799C40C3681C43C460521C90
:10062000102AC9D3BDE8F08110B54B07DB0E9A4004
:10063000C90800EB8100016A0F249C40A1430162BC
:10064000016A1143016210BD1CB50121052000F0B3
:100650008FFE0120009000208DF804008DF8070027
:1006600069460548FFF7A2FF4FF400500090694625
:100670000248FFF79BFF1CBD00000240000802403B
:100680002DE9FC410121802000F072FE4FF48064CE
:10069000009401208DF8040000218DF806108DF8DB
:1006A00007008DF805100C4F69463846FFF77EFFAE
:1006B0006600009669463846FFF778FFA50000956A
:1006C00069463846FFF772FF0348183004800680F9
:1006D0000580BDE8FC810000001C02404218521E4B
:1006E000491E824202D922EA0100704788437047BE
:1006F0000A46012101F044BFF8B50E46069D074C9D
:100700002468002C02D031460095A0470448864258
:1007100001D00020F8BD0020F8BD0000E404002056
:10072000F8C3B2A12DE9F04104460E461F46002F42
:1007300004D0F02C05D32248BDE8F0812048401CAD
:10074000FAE7DFF8808004F110051F4958F825000A
:10075000884202D01A48001DEEE7082E02D318483E
:10076000401DE9E7FFF792FC0246184848F82500CB
:10077000174840F8257060B23107090E00280DDBDC
:1007800000F01F044FF0010303FA04F34FEA501482
:100790004FEA840404F1E024C4F8003104DB00F1E2
:1007A000E02080F8001405E000F00F0000F1E020E8
:1007B00080F8141D1046FFF771FC0020BCE7000014
:1007C000000900020000002015200008D5200008C4
:1007D000FC04002010B501F0CBFE24482449006839
:1007E000086001F095FC044644B122A000F092FF9D
:1007F000214622A000F08EFF204610BD01F024FC0F
:1008000002F070F904463CB11AA000F083FF22A068
:1008100000F080FF204610BD02F0D4F901F002FF85
:100820000028F8D101F080FC0028F4D101F08CFD03
:1008300004463CB10FA000F06DFF1CA000F06AFF61
:10084000204610BD02F006F804463CB109A000F0B5
:1008500061FF1BA000F05EFF204610BD02F0A0FB70
:1008600001F012FC0028F8D110BD0000483000084B
:10087000E80400205B4552525D2000006F734D6517
:100880006D53797374656D496E6974206572726F0A
:10089000722025640A0000006F735461736B496E07
:1008A0006974206572726F720A0000006F7351756F
:1008B000657565496E6974206572726F720A000011
:1008C0006F735377546D72496E6974206572726FDD
:1008D000720A000042684A60086042681160416024
:1008E000704742684A600860426811604160704722
:1008F00042684A600860426811604160704742681F
:100900004A6008604268116041607047D0E9001297
:100910001160D0E900215160002141600160704701
:100920004168814201D10120704700207047416831
:10093000814201D101207047002070474168814207
:1009400001D101207047002070474168814201D1E8
:1009500001207047002070470068FFF7BBBF70B5EB
:1009600004460D460020002C0DD0002D0BD029464A
:10097000204601F0DAFE002805D129462046BDE8D0
:10098000704001F0C1B970BD01F050BA70B50546B4
:100990000C46002D0ED06CB12146284601F0FFFE1A
:1009A000012803D02146284601F060FA012803D02F
:1009B000012070BD012070BD002070BD2DE9F84FF1
:1009C00005468846DFF8B0A0DAF800402746002D3B
:1009D00002D0B8F1500F02D80120BDE8F88FA80767
:1009E00001D00120F9E7FFF751FB814605EB08062E
:1009F0001CE0A0682044A54201D8A64203D8854245
:100A000012D2864210D31DA000F084FEA0683246A8
:100A100020440090234629461AA000F07BFE484659
:100A2000FFF73CFB0120D8E72746E468002CE0D123
:100A30004146284601F09CFA88B1B8F5805F03D39F
:100A4000284601F0DCFE78B1DAF8000088B1FD60DC
:100A50000020E8604846FFF721FB0020BDE748463C
:100A6000FFF71CFB0120B8E74846FFF717FB012002
:100A7000B3E7CAF80050EBE7E00400205B455252B0
:100A80005D200000706F6F6C205B25702C2030782B
:100A900025782920636F6E666C69637420776974AA
:100AA0006820706F6F6C205B25702C203078257863
:100AB000290A00002DE9F0470D4608989046011DCF
:100AC0008FB2B8F1000F06D04FF6FB71884205D9FE
:100AD0002648BDE8F08725480930FAE7D5B1C8B106
:100AE000234C05FB07F12068FFF739FF064630006D
:100AF00013D0FFF7CBFA81461E48FFF71FFF78B1EE
:100B00004846FFF7CBFA31462068FFF73FFF17480A
:100B1000401CDEE715480A30DBE71448401ED8E7E2
:100B200014484468D4E900010860D4E90010486022
:100B300000201C3CE580278126600121A1802082C5
:100B40006582A081E08104F11401496009600831E7
:100B5000496009600831496009604846FFF79EFA1C
:100B60006089C8F800000020B3E700000306000217
:100B7000E8040020BC040020F8B507460D461646E0
:100B80001C46234632462946384601F0BBFC002865
:100B900006D1002133462A463846009401F002FC73
:100BA000F8BD7FB582B006460D461C46234604AA12
:100BB0002946304601F0C2FC002806D1032104ABCF
:100BC0002A463046009401F0EDFB06B070BD0000EF
:100BD00010B5FFF75BFA044601F03AFB0A492838E2
:100BE00048600968814202D00848008820B1204648
:100BF000BDE81040FFF752BA2046FFF74FFABDE8B4
:100C00001040FFF74EBA00006004002040040020AE
:100C10002DE9F84389460027394DDFF8E88014288C
:100C200009D300232A46414637A00097FFF764FD09
:100C30002846BDE8F8833949096801EB0014FFF73D
:100C400025FA0646208840B1608890B1401E608039
:100C50003046FFF723FA0020EBE73046FFF71EFA95
:100C600000232A46414628A00097FFF745FD284665
:100C7000DFE7B9F1000F0BD02948006858B1204CCC
:100C8000241D28A000F046FD28A000F043FD28E028
:100C90001B4CE41C25E02E48008840B1184C641D14
:100CA00020A000F037FD2BA000F034FD19E0324801
:100CB0000568AC614A46082104F1080002F094F886
:100CC0003046FFF7EBF9FFF783FF2879400614D58C
:100CD000FFF7DCF90646A88820F04000A880084C01
:100CE000A41D3046FFF7DAF900232246414606A04C
:100CF0000097FFF701FD20469BE7002099E70000E1
:100D000001070002F8C3B2A16F735F756E7370655F
:100D100063696669635F66696C650000C4040020EE
:100D2000240400205B4552525D2000002121214C0B
:100D30004F535F4552524E4F5F53454D5F50454EA6
:100D4000445F494E544552522121210A00000000BF
:100D5000400400202121214C4F535F4552524E4FF9
:100D60005F53454D5F50454E445F494E5F4C4F4386
:100D70004B2121210A000000600400202DE9F843E6
:100D80002449096801EB0014234F142802D3384684
:100D9000BDE8F883FFF77AF905462088DFF87C8004
:100DA000002688B1A0886188884219D12846FFF7BB
:100DB00075F9194C0023E41D2246414618A00096FF
:100DC000FFF79AFC2046E3E72846FFF767F9002380
:100DD0003A46414612A00096FFF78EFC3846D7E708
:100DE00004F10800FFF7B1FD38B16088401C608055
:100DF0002846FFF753F90020CAE7E06828388661E3
:100E0000082102F017F82846FFF748F9FFF7E0FE3F
:100E1000F1E70000C404002001070002F8C3B2A1FA
:100E20006F735F756E73706563696669635F66692A
:100E30006C65000010B502F033F804463CB106A022
:100E400000F068FC06A000F065FC204610BDFFF72E
:100E5000F9F8204610BD00005B4552525D200000AD
:100E60006F735469636B5374617274206572726F2F
:100E7000720A000070B50446204600F035F80028DC
:100E800029D1184D2068C0EBC000E96800EB400094
:100E900001EB8004FFF7FAF80646A08820F0020074
:100EA00040F00400A080E18804F1280001F088F9F6
:100EB00001F0CEF905F1200128384860EA695AB1FD
:100EC0002A884AB90968814206D03046FFF7E6F819
:100ED00001F054FB002070BD3046FFF7DFF8002022
:100EE00070BD0000400400202DE9F05F80460D46F3
:100EF0004FF0FF39B8F1000F0BD065B1286960B130
:100F0000286860B1A9884A4A1F290AD91046BDE855
:100F1000F09F4848FBE74848F9E74848F7E7484862
:100F2000F5E704D14749884201D01046EFE746492A
:100F3000464FE86809683A68891A491C884202D90C
:100F40003C481930E3E710B94FF43470E8600821E9
:100F5000E868FFF7C3FBE860B0F5987F02D2354838
:100F6000401ED4E7FFF792F882460026DFF8E0B093
:100F700010E0DBF80400A0F12804FFF7C7FC3448B8
:100F800004F128010838FFF7A5FCE1683868FFF78D
:100F9000FDFCE6602E48FFF7CAFC0028E9D02C488B
:100FA0000838FFF7C4FC10B1224C0A343AE0284854
:100FB00008384068A0F12804FFF7A8FC5046FFF766
:100FC0006DF8D4F810A00822E9683868FFF7DCFC57
:100FD000074638001CD03A465046E96801F0E8FF61
:100FE0002060A8682062E760E868A060A661E6610A
:100FF0000220A080A888E08028686061C4F83C9046
:10100000A664286960622665C8F800A000207EE713
:10101000FFF73CF882460E4804F128010838FFF734
:1010200059FC0C4C5046FFF739F820466FE700009A
:101030000302000207020002010200020502000290
:1010400004020002852000084C30000848300008E7
:10105000780400200002000370B5054616480068B9
:10106000002801D0154870BD1548008808B1154802
:1010700070BDEDB1FFF70AF80646114C2034206828
:10108000283001F07DF82268908820F004009080DC
:101090002946206801F0C8FC2068818841F02001C1
:1010A00081803046FEF7FAFFFFF792FD002070BD09
:1010B000BDE8704000F0B4B8240400200D02000325
:1010C000400400200E0200022DE9F04706464FF0D2
:1010D000FF39DFF84081D8F81400864202D14E482B
:1010E000BDE8F087D8F81800864202D14A480D3092
:1010F000F6E7D8F81000864202D347480D38EFE7EC
:10110000FEF7C4FF0746C6EBC600D8F80C1000EB8C
:10111000400001EB8004A588E80706D03E4C0A3C5D
:101120003846FEF7BBFF2046DAE7E8064FF0000A34
:1011300004D5B8F8000008B1A8F800A0680708D5E1
:1011400004F1280001F01CF8A08820F00400A08021
:1011500009E005F0080005F40051084303D004F14C
:101160002800FFF7D3FB15F0600F02D0204601F0F6
:10117000E1FEA08820F0020040F00100A080C4F849
:101180003C90C4F848A001F063F8DFF88890283854
:1011900009F12009C9F8040020794FF00105C006C3
:1011A00024D504F1280109F11800FFF7D5FBD8F880
:1011B0001000D8F80C10C0EBC00000EB400001EBB1
:1011C0008000C9F800000661D9F80010A088888066
:1011D000D9F80000E168C160616A4162A5803846C3
:1011E000FEF75CFF01F0CAF9002079E7A580094805
:1011F00004F128013030FFF76DFB0848E168006812
:10120000FFF7C4FBC4F80CA03846FEF747FF0020E8
:1012100066E7000040040020140200024830000885
:1012200070B5194CA4F1200220681269016991423D
:1012300001D3164870BD0079400701D4002070BD6D
:10124000FEF724FF05462068C08800F0F1FF012862
:1012500014D920682830FFF759FB2068818841F0B5
:10126000040181802068C188283000F0A9FF284649
:10127000FEF714FFFFF7ACFC002070BD2846FEF718
:101280000DFF0248093070BD600400200702000213
:10129000014903C9704700009804002008B54FF4C5
:1012A000A06000F05BF825208DF8000001208DF88B
:1012B00001008DF802008DF80300684600F01AF86E
:1012C00008BD08B54FF4C06000F048F806208DF85E
:1012D000000001208DF801008DF802008DF8030058
:1012E000684600F007F828208DF80000684600F0F6
:1012F00001F808BD30B50F23C27801250178002A16
:101300001FD0154A126802F4E062C2F5E062C2F32F
:101310000722C2F10404D3404278A24084781C40E2
:101320001443220101F1E02181F80024007800F04B
:101330001F018D404009800000F1E020C0F80051FD
:1013400030BD01F01F0085404809800000F1E02019
:10135000C0F8805130BD00000CED00E002490843A8
:1013600002490860704700000000FA050CED00E03B
:10137000054A002903D011680143116070471168C4
:10138000814311607047000030380240054A00294F
:1013900003D01168014311607047116881431160E7
:1013A000704700004438024070B5244B196801F0C2
:1013B0000C01234C00291ED0224E04291DD00829DF
:1013C0001DD00460196801F0F00109091E4A545C3F
:1013D0000168E14041601C6804F4E054A40A145D13
:1013E00021FA04F484601B6803F460435B0BD25C55
:1013F000D140C16070BD0460E4E70660E2E70F4AD7
:10140000121F1168C1F38055116801F03F0135B119
:10141000B6FBF1F11468C4F38814614305E0B4FB32
:10142000F1F11468C4F3881461431268C2F30142F5
:10143000521C5200B1FBF2F10160C3E708380240D0
:101440000024F40040787D011404002010B58A07C0
:10145000120F0F23934021F003040649214401F6A3
:1014600008010C689C430C600B68904003430B60C0
:1014700010BD0000003001401CB500210191009119
:101480002E4A106840F4803010604FF4A04310687A
:1014900000F4003000900198401C0190009810B9B1
:1014A00001989842F3D11068800302D50120009082
:1014B00000E00091009801283FD1204840300168A9
:1014C00041F0805101601E49086840F440400860C6
:1014D0001A48083003680360036843F4004303605C
:1014E000036843F4A0530360041F164B2360136882
:1014F00043F08073136013689B01FCD50A6842F4C3
:1015000080320A604A68D203FCD50A6842F400328D
:101510000A604A689203FCD50B4A40F205711160DB
:10152000016821F003010160016841F002010160DE
:101530000168C1F381010229FAD11CBD00380240C3
:1015400000700040195A4007003C024010B50F4897
:10155000016841F0010101600C4A0021083211606C
:1015600002680B4B1A400260031D0A4A1A600268A7
:1015700022F48022026005480C300160FFF77CFFF6
:1015800005494FF00060086010BD000000380240BF
:10159000FFFFF6FE1030002408ED00E00A4C0021A9
:1015A0006068FFF735FB10B908A000F0B3F8002120
:1015B000A068FFF72DFB10B909A000F0ABF81420CC
:1015C000FFF74AFDEBE70000EC040020B4A5B7A24A
:1015D000D6D0B6CFB5C4CAC7204B455931210A0071
:1015E000B4A5B7A2D6D0B6CFB5C4CAC7204B45590B
:1015F00032210A00002904D0818941F400518181FF
:101600007047818921F40051818170470246002092
:1016100012880A4200D00120704710B540F66A13C4
:10162000C1F3421301F01F040121A140012B07D097
:10163000022B07D014303AB102680A43026010BD91
:101640000C30F8E71030F6E702688A43026010BDFC
:101650007FB504460D46208A20F44051E8880843AF
:101660002082A08941F20C618843A9882A8911430C
:101670006A8902431143A181A08A20F44071A8899C
:101680000843A0826846FFF78FFE1E48844202D0BE
:101690001D48844201D1039800E00298A189090401
:1016A00008D500EBC00101EB001029684900B0FB30
:1016B000F1F007E000EBC00101EB001029688900A0
:1016C000B0FBF1F06422B0FBF2F109010B096FF0FD
:1016D00018056B4300EB8300A3891D044FF0320310
:1016E00007D503EBC000B0FBF2F000F007000843A1
:1016F00006E003EB0010B0FBF2F000F00F0008432F
:1017000020817FBD0010014000140140C1F3080199
:10171000818070470FB4054B10B503A9044A0298A5
:1017200000F018F810BC5DF814FB0000AD1B0008B9
:10173000F804002002E008C8121F08C1002AFAD1EC
:1017400070477047002001E001C1121F002AFBD141
:10175000704700002DE9FF4F8DB00F46054600266B
:1017600006E025280BD0DDE90F1290476D1C761C92
:1017700028780028F5D111B03046BDE8F08F00245C
:10178000A246A1460122E94900E0044315F8013FC1
:10179000203B02FA03F00842F7D128782A2810D01B
:1017A0006FF02F022878A0F13001092914D80AEB34
:1017B0008A0102EB410144F0020400EB010A6D1CB6
:1017C000F0E701CF5FEA000A03D544F40054CAF100
:1017D000000A44F002046D1C28782E2817D115F851
:1017E000010F44F004042A280ED06FF02F0228784D
:1017F000A0F1300109290AD809EB890102EB410166
:1018000000EB01096D1CF2E757F8049B6D1C28786A
:101810006C280FD006DC4C2817D068280DD06A2819
:1018200014D104E0742810D07A280FD10DE044F4CC
:1018300000140AE044F4801401E044F44014697890
:10184000814202D104F580146D1C6D1C28786E282D
:101850001ED00CDC632830D004DC00288BD0582844
:1018600011D19FE0642867D069280CD164E0732807
:101870002DD004DC6F2872D0702804D194E0752834
:101880006ED078286DD0DDE90F129047761C4BE1C1
:10189000C4F30250022806D0032809D0042801CF3F
:1018A00009D0066040E101CFF117C0E900613BE1DA
:1018B00001CF068038E1067036E117F8040B8DF889
:1018C000000000208DF80100EB46012003E057F8EE
:1018D00004BB4FF0FF3061074FF0000102D40DE070
:1018E00008F10101884649450FDA8045F8DB1BF80D
:1018F00008100029F4D108E008F10101884681426E
:10190000FADB1BF808100029F6D1DDE90F23AAEB5A
:1019100008008146214600F031F9304400EB08060A
:1019200004E0DDE90F121BF8010B9047B8F1010844
:10193000F7D221464846F2E00A21C4F302524FF0A2
:10194000000B0891022A04D001CFC117032A09D045
:101950000AE0FF1D27F00707F7E8020108E02CE086
:101960001EE01FE000B2C117042A01D140B2C11726
:10197000021E71F1000206DA0023D0EB030063EBD4
:1019800001012D2202E0220504D52B228DF824200E
:10199000012203E0E20701D02022F7E7904653E05E
:1019A0000A210BE0102109E010214FF0000B44F058
:1019B00004044FF00809089103E008214FF0000BE0
:1019C0000891C4F30252022A04D001CF0021032A55
:1019D00006D006E0FF1D27F00707F7E8020103E045
:1019E00080B2042A00D1C0B24FF0000822072BD5E4
:1019F0002A78702A07D0DDF820C08CF0100C5CEA41
:101A00000B0C05D00EE040228DF82420012208E0C6
:101A100050EA010306D030238DF824308DF82520BC
:101A200002229046089B83F0080353EA0B030BD174
:101A300050EA010201D1620706D530228DF8242038
:101A40004FF00108A9F101092A78582A04D038A2D8
:101A50000B9208AA0A920BE03AA2F9E75B46089AB1
:101A6000FEF756FB0B9B9B5C0A9A521E0A92137060
:101A700050EA0102F2D10A98ADEB000000F1200B10
:101A8000600702D524F4803401E04FF00109D94504
:101A900002DDA9EB0B0000E0002000EB0B0141444C
:101AA0000890AAEB010AE00306D4DDE90F232146E2
:101AB000504600F063F806444FF0000908E009A919
:101AC00011F80900DDE90F12904709F10109761CB0
:101AD000C145F4DBE0030CD5DDE90F232146504678
:101AE00000F04CF8064404E0DDE90F123020904786
:101AF000761C0899481E08900029F5DC08E00A9831
:101B00000A990078491C0A91DDE90F129047761C6A
:101B1000BBF10001ABF1010BF1DC21465046DDE9E0
:101B20000F2300F019F806446D1C21E60928010076
:101B30003031323334353637383961626364656643
:101B40000000000030313233343536373839414205
:101B500043444546000000002DE9F04104460025BD
:101B60001E461746880404D405E039462020B047B5
:101B70006D1C641EF9D52846BDE8F0812DE9F041C1
:101B8000044600251E469046C80301D5302700E0D4
:101B90002027880404D505E041463846B0476D1C2F
:101BA000641EF9D52846BDE8F081000070B50446F2
:101BB000064DE1B22846FFF7A9FD80212846FFF730
:101BC00025FD0028F9D0204670BD0000001001401E
:101BD00010B5FEF7BBFB08A0FFF79CFDFEF7FAFD72
:101BE000014621B10CA0FFF795FD012010BDFEF7C5
:101BF00041FBFFF71FF9FEE7D5E2CAC7D2BBB8F633
:101C0000BDD3B9DCCABDD6D0B6CFB9DCC0EDCAB53C
:101C1000D1E9210A000000004C6974654F5320BAD5
:101C2000CBD0C4B3F5CABCBBAFCAA7B0DCA3A1CAB2
:101C3000A7B0DCB4FAC2EB20307825580A000000C7
:101C400010B586B00446142101A8FEF7ABFA01A92D
:101C5000204600F0B7F906B010BD4A0900EB820239
:101C6000121D0068884206D901F01F030121106887
:101C7000994088431060704730B502C81F314B0946
:101C80000022002107E00468641C02D00468E343DA
:101C900008E0491C001D9942F5D34FF0FF3030BDDC
:101CA0005B08521C002BFBD1531E01259D402C4389
:101CB000046002EB4110401E30BD02688A4201D828
:101CC000002070474A0900EB820001F01F024068C3
:101CD000012191400840F4D00120704770B50546BD
:101CE0000C462C6004F11F00C108281DFEF75AFAAB
:101CF000E00608D004F01F014FF0FF308840610972
:101D000005EB8101486070BD2DE9F04106460D46A6
:101D10000024A046002E07D0FEF7B8F90746ED1CB8
:101D200025F00305706813E00020BDE8F0814168EC
:101D30004A000CD421F04041A94208D324B1626882
:101D400022F040428A4202D90446A94220D00068CB
:101D50000028ECD1F4B3606820F04040401B082814
:101D600016D962190832506820F0804050606168CE
:101D7000491B083961F31D0050601460214630464C
:101D800000F015F938B30260606865F31D0060600B
:101D9000606820F0004040F08040606004F1080876
:101DA00013498868284408308860CA68904200D97E
:101DB000C8600868401C08607068406820F04040B7
:101DC000B0F5806F02D23046FFF73AFF3846FEF793
:101DD00065F901E002E009E04046A6E705A0FFF74B
:101DE00099FC294605A0FFF795FCE5E77260CBE773
:101DF000D00400205B4552525D200000746865727B
:101E0000652773206E6F7420656E6F756768207725
:101E1000686F6C6520746F20616C6C6F632025782F
:101E2000204279746573210A0000000070B51446E1
:101E3000002806D029B1042C03D3621E1546144293
:101E400001D0002070BD2144091FFFF75DFF00286D
:101E5000F8D00119491EA9438842F3D0081A40F06E
:101E6000004041F8040C084670BD00002DE9F04127
:101E700004460D460126002C18D0BDB155F8040CBF
:101E8000002802DA20F000402D1A2068A84203D86A
:101E900060680830A8420BD22DA0FFF73BFC294612
:101EA0002DA0FFF737FC0020BDE8F0810120FBE703
:101EB000FEF7ECF80746A5F10802506840000ED581
:101EC000206890420DD01168814208D360680830C4
:101ED000814204D8204600F06AF8904201D00026E2
:101EE00031E0506820F080405060204D20F04040AC
:101EF00000F10803A9688B4204D8081A0838A860C2
:101F000000E00246106868B141684900F9D509E06F
:101F100051680B44083363F31D01516061688142CD
:101F200000D162601146204600F041F810B14368CC
:101F30005900EDD51146204600F039F800B1026095
:101F40006868401C68603846FEF7A8F83046ABE782
:101F50005B4552525D20000030782578206F757403
:101F6000206F662072616E6765210A00D004002030
:101F700070B504460E462546002D01D0582E01D8D6
:101F8000002070BD31462046FEF70CF9AE6050349B
:101F90002C606C60606820F08040606000202060F1
:101FA0006068583E66F31D006060012070BD4068A7
:101FB000884201D100207047486820F04040084422
:101FC0000830704730B50023002802D019B14268AC
:101FD0000BE0012030BD012030BD5468650003D501
:101FE00024F04044234408331268002AF5D1826863
:101FF0009A4201D2012030BD4B6080680860C01A4F
:10200000886003480268CA6040680861002030BDEB
:10201000D004002000F05AF8044604A0FFF77AFB31
:102020002246044904A0FFF775FBFEE75B455252C8
:102030005D200000343000082573206972716E75D0
:102040006D3A25640A00000010200A4A0A4941F846
:102050002020401CFF28FAD908480160011D0868AB
:102060004FF6FF021040064A40F4E060104308605B
:1020700070470000152000080000002008ED00E077
:102080000000FA05FEE7000000B587B0182101A89E
:10209000FEF788F8084801904FF4A060049007A06C
:1020A00005901F20ADF8080001A90748FEF7E2FEE1
:1020B0000028FFD107B000BD8520000849646C6589
:1020C000436F72653030300054040020EFF3058018
:1020D0007047000010B5FDF7D9FF0B4C2168491C73
:1020E0002160FDF7DBFFFFF7F1FF084951F8200001
:1020F00000B18047FDF7CAFF2168491E2160BDE895
:102100001040FDF7CBBF000024040020FC04002099
:102110000348016803480068091A491CFEF74EBCD1
:102120004C300008483000082DE9F041114840606B
:10213000006011484FF4F0710068FEF710FC0D4D7F
:102140002D1F286098B1002400262F1D296804EB5C
:10215000440001EBC0014C6001F8086B3868FEF7E1
:10216000C0FB641C142CF1D30020BDE8F0810348AF
:10217000FBE70000B0040020E8040020001D00027E
:1021800070B5D0E900121160D0E900215160002142
:1021900041600160A0F12804084DE088696801EB06
:1021A000C000FEF7BDFB002806D0A1794FF000402B
:1021B000C84029688143296070BD000028040020C0
:1021C00070B504460D460C4E706800EBC500FEF776
:1021D000A7FB28B14FF000403168E8400843306069
:1021E000706800EBC500016848686060216048685D
:1021F00004604C6070BD00002804002010B500246D
:102200004FF4807108480068FEF7A9FB0749486051
:10221000002807D0486800EBC40040600060641CE0
:10222000202CF7D310BD0000E80400202804002073
:1022300001460020054A526802EBC102516801E0E4
:10224000401C49688A42FBD17047000028040020E6
:1022500006490868002806D0B0FA80F0496801EB0A
:10226000C00040687047002070470000280400202C
:102270002DE9F041044616461F4611F003004FF0C9
:1022800000030BD0012812D003281AD024A0FFF796
:1022900041FABDE8F04124A0FFF73CBAA089E588E7
:1022A000421CAA4201D1A38113E0A28111E0A089BE
:1022B00018B1401EA081A0890BE0E088401EA081DB
:1022C000F9E7E089E588421CAA4201D1E38100E0F8
:1022D000E2812289236800FB0235480708D5C80738
:1022E00003D030682860BDE8F08128683060FAE7E4
:1022F000C8070AD0314628463A68FDF73AFF2089D8
:102300002D1F284439680160EDE7281F1044046838
:10231000294622463046FDF72CFF3C60E3E70000EB
:102320005B4552525D200000696E76616C696420E5
:102330007175657565206F7065726174652074795B
:102340007065210A0000000070B513484FF4DC747A
:1023500021460068FEF703FB104D2860C8B12146F6
:10236000FDF720FF281D406000600024064604EBB6
:102370004400296800EBC40001EB80014C811C3152
:102380003068FEF7B5FA641CA4B20A2CEFD3002023
:1023900070BD034870BD0000E8040020B8040020B0
:1023A000010600022DE9FF5F0446DDF838A00F4664
:1023B0009946002507F00106FDF768FE80464D4965
:1023C00004EB440000EBC400096801EB8004A08822
:1023D00010B1F80702D00AE0474D85E02089D9F80E
:1023E0000010001F814202D2434D15357CE0F807F2
:1023F00008D02089D9F80010001F814202D93E4D33
:102400000B3571E004EB4601088AE8B1401E0882F2
:102410004B4639462046029AFFF72AFFEEB30020CA
:1024200004EBC0001430FEF789FAB8B3002E54D084
:102430004FF0000004EB4000008A00F1010081B27F
:102440004ED14FF001004CE0BAF1000F05D02B48FF
:10245000008850B1284D2D1F46E0F80702D0264DC8
:102460000C3541E0244D13353EE02548D0F800B04E
:1024700004EBC600143052464FF4005100F0B4FC97
:102480004046FDF70BFEFEF7A3FBFDF7FFFD804680
:10249000BBF804004106BBD501E007E008E020F0EE
:1024A0004000ABF80400144DED1E1DE00120B7E71D
:1024B0008EB1002004EBC000806928384FF4005131
:1024C00000F0B8FC4046FDF7E9FDFEF781FB002077
:1024D00004B0BDE8F09F0120ECE74FF00100A9E750
:1024E000002004EB400001824046FDF7D7FD28465E
:1024F000EEE70000B80400200A06000240040020B5
:10250000600400200A2801D30A48704749B142B14B
:10251000106848B15BB10848006840B105480A300E
:1025200070470448401C70470248801C70470020D8
:10253000704700000E060002240400200A2801D380
:102540000948704741B1106848B15BB1074800685D
:1025500040B10548401F70470348001D70470248BE
:10256000401D7047002070470E0600022404002022
:10257000014910200860704750040020FDF791BD0C
:102580002DE9F84F06460F461546002D08D0DFF816
:1025900074A04FF00009BE4206D91B4C514610E012
:1025A0001948801FBDE8F88FFDF770FD8046174879
:1025B000FEF7CBF970B14046FDF770FD124C641F79
:1025C00051460023224612A0CDF80090FEF794F861
:1025D0002046E7E70D484368D3E9000108605868E2
:1025E00053F8081948605E80012018809F8003F12D
:1025F000080464602460D88828604046FDF74EFDDA
:102600000020CFE7F8C3B2A108070002C8040020E9
:102610006F735F756E73706563696669635F666922
:102620006C6500002DE9F0411048406000601048E2
:102630004FF4A0710068FEF792F90C4D2D1F286031
:1026400090B1002400262F1D286800EB0411CC80D7
:1026500021F8086B3868FEF752F9641CA4B2142CF8
:10266000F2D30020BDE8F0810248FBE7C804002057
:10267000E80400200007000210B50446A068FFF738
:10268000FBFA002801DA002010BDD4E9002102FB8A
:10269000001010BD10B503465868081A1A68B0FB40
:1026A000F2F4B0FBF2F102FB110000280DD19868A2
:1026B0000168A14209D92146FFF7FFFA28B1214656
:1026C0009868FFF7CAFA012010BD002010BD2DE95F
:1026D000F0410D461F4607F11F01042303EBD10112
:1026E0008E18761E541EA64315446D1EA54305FB89
:1026F00007F131440C31FFF707FB044644B1256074
:1027000004F10C00A060811961603946FFF7E6FA18
:102710002046BDE8F0814DF6DE6202808170002126
:10272000C170001D70471030704770B50E46FFF73E
:10273000FAFF05460024802E01D9002070BD05EB6C
:1027400004100068B04225D3FDF7A0FC064605EB57
:102750000414D4E90110884204D33046FDF79EFCEE
:10276000002070BDE06880B1FFF786FF05463DB1EF
:1027700028462168FFF7CFFF0546A068401CA060EF
:102780003046FDF78BFC284670BD3046FDF786FCD1
:10279000002070BD641C042CD1D3002070BD2DE935
:1027A000F0410D46FFF7BFFF0646002700242D1F0E
:1027B0002888A0F55E41DE3902D00020BDE8F08116
:1027C000A87806EB04110968884213D8FDF75EFC6F
:1027D000804606EB04142946E068FFF75BFF0128FA
:1027E00003D10127A068401EA0604046FDF756FCBB
:1027F0003846E3E7641C042CE3D30020DEE72DE930
:10280000F05F83465846FFF78EFF074600240025F9
:10281000A1464FF010084FF4007A08FA04F1BAFB11
:10282000F1F307EB041631607360C6F80890F068A6
:1028300008B16D1C05E00422091D5846FFF747FF4B
:10284000F060641C042CE8D315B10020BDE8F09FB3
:102850000120FBE7F8B51A4D0027EF604FF4C07177
:102860000E4618480068FEF77AF80446E4B131468F
:102870002046FDF797FC6C60AC60E7802146183479
:102880000120E0800C602146401C80B218341028E2
:10289000F7D3082000230090094A10211846FEF7BC
:1028A00009F920B10848F8BD0748001FF8BD00F03D
:1028B0004BF810B10448401CF8BD0020F8BD0000E2
:1028C00030040020E80400200B03000230B500248F
:1028D000C16881600C4DE96807E08A6883689A42A4
:1028E00005D89A1A82600C4609680029F5D1016062
:1028F00019B18A688368D21A8A601CB120600221EB
:10290000017130BDE860FAE7300400200EB5082000
:1029100000900C4D4FF0FF3633466A4601A92868F7
:10292000FEF72AF90028F7D100980828F4D1019879
:102930000028F1D0FEF7ACFCDDE901108847FEF776
:10294000A7FCE9E73004002000B587B0182101A8F2
:10295000FDF728FC074801904FF43470049006A05E
:1029600005900020ADF8080001A90648FEF782FA9C
:1029700007B000BD0D2900085377745F5461736B75
:1029800000000000580400207CB5194DEC6828E0D8
:102990002068E860606900902069019000230822A7
:1029A00069462868FEF7FDF8607920B1012811D04A
:1029B000022813D014E0204600F01CF8E0884FF6FF
:1029C000E071884202D21030E08009E000F00F0090
:1029D000E08005E02046FFF779FF01E0012020714B
:1029E000EC68002C02D0A0680028D1D07CBD00008B
:1029F0003004002003498A68026088600021017168
:102A0000704700003004002010B50648C068002858
:102A100005D08168491E816001D1FFF7B5FF002014
:102A200010BD000030040020F0B4024601F01F0386
:102A30004809002B00D1401E916B01F07841014301
:102A40001B4C2079184400F01F0060F3DF61916394
:102A5000216801EBC00302F130015868984203D1AC
:102A6000F0BC1846FDF778BF3038946B866B24F0C5
:102A7000784726F07845BD420BD87D1B04F078449A
:102A800025439563406B303800F130049C42ECD113
:102A90000AE0836B926B23F0784322F078429A1A13
:102AA00006F078431A438263F0BC3030FDF754BF20
:102AB0008004002070B5094DC0EBC00000EB400061
:102AC000E96801EB80046169206A8847002028805A
:102AD0002069BDE87040FEF7F7BA0000400400200E
:102AE00072B6FEE72DE9F041334D54202C69641C89
:102AF0004443324E21463068FDF731FFE860304FE5
:102B0000002854D02146FDF74DFB05F12800406018
:102B100000600830406000600830406000600024C1
:102B20004FF00108C4EBC400E96800EB400001EB82
:102B30008001A1F804800C611F4828313030FDF776
:102B40000BFF641C0F2CEDD94FF00008C5F8248052
:102B50002869E968C0EBC00000EB400001EB800091
:102B600015492031086004610A68112090800968C5
:102B70002020C880FFF742FB4FF480710D4630687B
:102B8000FDF7EDFE0446200013D02946FDF70AFBB1
:102B9000094840300460A0F804800020646024608C
:102BA000401C08342028F9D30020BDE8F0813846C5
:102BB000FBE73846F9E7000040040020E804002065
:102BC0000002000310B54FF4AB710648FDF7EAFAB6
:102BD00004490A204870054803494160002181608A
:102BE00010BD0000FC080020AD2C000840040020AF
:102BF0002DE9F04100272C490879401C00F01F0006
:102C00008880096801EBC0067468B44249D0303C42
:102C10003DE0A588A06B400103D0A06B401EA063DF
:102C200039E004F13000FDF771FE28070BD5A088CC
:102C300020F00800A08004F12800FDF767FE0020C6
:102C4000A061E06115E0680504D5A08820F48060EB
:102C5000A0800EE0A80408D504F12800FDF756FE78
:102C6000A08820F40050A08003E0A08820F020007D
:102C7000A080A80709D4A08840F00400A080E188C3
:102C800004F12800FFF79CFA01277468303C04F136
:102C90003000B042BDD1002F03D0BDE8F041FDF7B8
:102CA00097BFBDE8F08100008004002010B52A4CD9
:102CB0002068C0680068B0F1CC3F08D027A0FEF7BC
:102CC00029FD20680269416A26A0FEF723FD60689D
:102CD000C2680168914203D980681044884211D2C9
:102CE0001EA0FEF717FD60680269416A27A0FEF783
:102CF00011FD1AA0FEF70EFD6068C26801682CA0E5
:102D0000FEF708FD6068374C018A227804EB420226
:102D10005180416A2078202204EB40101630FDF7E4
:102D200028FA2078002104EB401080F83510207834
:102D3000401CC0B220700A2804D12170607840F095
:102D400080006070044820388068002802D0BDE808
:102D50001040004710BD0000600400205B45525247
:102D60005D20000043555252454E54207461736BF0
:102D70002049443A2025733A256420737461636BBB
:102D8000206F766572666C6F77210A004849474864
:102D9000455354207461736B2049443A2025733A9B
:102DA0002564205350206572726F72210A00000062
:102DB00048494748455354207461736B20537461EC
:102DC000636B506F696E7465723A20307825782095
:102DD000546F704F66537461636B3A203078257876
:102DE0000A000000FC0800202DE9F04107460E46CD
:102DF00015460F48046804F128008046FFF7C0F923
:102E0000A08820F0040041463043A0803846FDF7FA
:102E1000A3FD681C09D0A08840F04000A08029468E
:102E20002046BDE8F041FFF7FFBDBDE8F08100009E
:102E30006004002070B504460D4604F128000646E3
:102E4000FDF764FDA088A843A080400606D5204673
:102E500000F070F8A08820F04000A080A0888107D2
:102E600008D440F00400A080E1883046BDE87040FE
:102E7000FFF7A6B970BD000010B50848D0E90213ED
:102E80004A1C43F10001C0E9022100F06DF8FFF790
:102E9000AFFEBDE81040FFF7B7BD00009004002072
:102EA00010B51A480068002803D04FF47A72904297
:102EB00001D2174810BD184B1649D963184B174952
:102EC000D963B0FBF2F1174B1960174900230B606F
:102ED0004B60B0FBF2F0401EB0F1807F01D30120C7
:102EE0000AE04FF0E0214861104AF0201070002005
:102EF0008861072008610020012804D00C490120C6
:102F00000860002010BD0248801C10BD0004002095
:102F100000040002D520000800000020792E0008DF
:102F2000FC040020A00400209804002023ED00E011
:102F30008804002030B4826BD10E0A4B1B6803EB6F
:102F4000C103416B994209D08B6822F0784223F08B
:102F50007844224403F078431A438A6030BC30300E
:102F6000FDF7D4BC800400200B480A4A01680B48D6
:102F7000136800688B4204D01160D388411E194445
:102F80009180918880B2814203D100201060FEF7C9
:102F900047B97047A4040020600400209804002072
:102FA0000248002101600A21C1807047A40400206A
:102FB00070B506460D4614464FF0CA3229462046E3
:102FC000FDF7E9F84FF0CC302060601944384FF03D
:102FD000043101604FF0053141604FF006318160EE
:102FE0004FF00731C1604FF0083101614FF00931F6
:102FF00041614FF0103181614FF01131C161002109
:10300000016246624FF0013181624900C1624FF0B6
:10301000033101634FF01231416304498163044974
:10302000C1634FF08071016470BD0000E12A0008A7
:10303000B52A00086F7348776944656661756C74DA
:1030400048616E646C657200580A0020FFFB022024
:103050008030000800000020000400001C0200086E
:103060009830000800040020FC000000341700081D
:1030700094310008FC0400205C090000441700089B
:103080004122090C10081520040110A9185AAD346A
:1030900001FF01FF01FF01C30095BA0A0000000013
:1030A00000000000010203040607080900000000F8
:1030B00001020304010203040607080900000000DE
:1030C0000000000000000000000000000000000000
:1030D00000000000000000000000000000000000F0
:1030E00000000000000000000000000000000000E0
:1030F00000000000000000000000000000000000D0
:1031000000000000000000000000000000000000BF
:1031100000000000000000000000000000000000AF
:10312000000000000000000000000000000000009F
:10313000000000000000000000000000000000008F
:10314000000000000000000000000000000000007F
:10315000000000000000000000000000000000006F
:10316000000000000000000000000000000000005F
:10317000000000000000000000000000000000004F
:10318000000000000000000000000000000000003F
:04319000000000003B
:040000050800002DC2
:00000001FF
