:020000040800F2
:100000000000032009000008DFF81400016841F433
:100010007001016072B60348804703480047000042
:1000200088ED00E0590200082D000008DFF810D02C
:1000300000F008F800480047A9020008AFF300806C
:1000400000000320064C074D06E0E06840F0010385
:1000500094E8070098471034AC42F6D3FFF7EAFF64
:10006000BC020008BC02000810B54FF4407000F05C
:1000700071F8BDE8104000F03FB82DE9F0410022D2
:1000800001274FF0030C07FA02F50B682B40AB4237
:100090002CD1066853000CFA03F4A64306600E79CF
:1000A000D0F800809E4046EA080606600E79012ED0
:1000B00001D0022E12D18668A64386604E79D0F810
:1000C00008809E4046EA080686604668AE43466061
:1000D00045688E799640B6B235434560C568A543FC
:1000E000C560CC799C40C3681C43C460521C102A74
:1000F000C9D3BDE8F08100002DE9FC410121802039
:1001000000F032F84FF48064009401208DF8040070
:1001100000218DF806108DF807008DF805100C4FA2
:1001200069463846FFF7A9FF6600009669463846DB
:10013000FFF7A3FFA500009569463846FFF79DFF2E
:1001400003481830048006800580BDE8FC8100006B
:10015000001C024002490843024908607047000041
:100160000000FA050CED00E0054A002903D01168F3
:1001700001431160704711688143116070470000AE
:10018000303802401CB50021019100912E4A1068C0
:1001900040F4803010604FF4A043106800F4003049
:1001A00000900198401C0190009810B90198984265
:1001B000F3D11068800302D50120009000E0009187
:1001C000009801283FD120484030016841F080511B
:1001D00001601E49086840F4404008601A48083031
:1001E00003680360036843F400430360036843F457
:1001F000A0530360041F164B2360136843F0807301
:10020000136013689B01FCD50A6842F480320A60CF
:100210004A68D203FCD50A6842F400320A604A6890
:100220009203FCD50B4A40F205711160016821F080
:1002300003010160016841F0020101600168C1F33E
:1002400081010229FAD11CBD003802400070004033
:10025000195A4007003C024010B50F48016841F0B0
:10026000010101600C4A00210832116002680B4B49
:100270001A400260031D0A4A1A60026822F48022B2
:10028000026005480C300160FFF77CFF05494FF024
:100290000060086010BD000000380240FFFFF6FE5D
:1002A0001030002408ED00E0FFF7DEFE02494FF4B5
:0C02B00080600880FEE700001A1C02407D
:040000050800002DC2
:00000001FF
