:020000040800F2
:100000000000032009000008DFF81400016841F433
:100010007001016072B60348804703480047000042
:1000200088ED00E0451200082D000008DFF810D030
:1000300000F0E2F80048004771180008AFF30080B4
:100040000000032072B62C482C49026841EA0201E4
:1000500001602B484FF0010101602A4841680160AE
:1000600001688A884FF0100342EA03028A80D1F8BF
:1000700000C00CF1240CBCE8FF008CF309884FF0A1
:10008000020C8CF31488AE4662B63047EFF3108052
:1000900072B67047EFF3108062B6704780F3108835
:1000A000704719484FF0805101607047EFF3108C92
:1000B00072B6164A126822B12DE900509047BDE889
:1000C0000050EFF3098020E9F01F0E4D4FF01008AB
:1000D0002E683060B78827EA0807B780686828600C
:1000E000878847EA080787800168B1E8F01F81F335
:1000F00009888CF31088704720ED00E00000FFFFB6
:10010000680400206C04002004ED00E0500400208E
:100110002DE9F05F0546002092469B46884606463C
:10012000814640241BE0284641464746224600F0CF
:1001300053F853465A46C01A914110D311461846F7
:10014000224600F03AF82D1A67EB01084F46224686
:100150000120002100F031F817EB00094E41201E6C
:10016000A4F10104DFDC484631462A464346BDE897
:10017000F09F40EA01039B0703D009E008C9121F62
:1001800008C0042AFAD203E011F8013B00F8013B51
:10019000521EF9D27047D2B201E000F8012B491E7D
:1001A000FBD270470022F6E710B513460A46044614
:1001B0001946FFF7F0FF204610BD202A04DB203A45
:1001C00000FA02F1002070479140C2F1200320FAAA
:1001D00003F3194390407047202A04DB203A21FAA8
:1001E00002F00021704721FA02F3D040C2F1200250
:1001F0009140084319467047064C074D06E0E068F9
:1002000040F0010394E8070098471034AC42F6D35D
:10021000FFF710FF3C2E00086C2E000870B58C18FC
:1002200010F8015B15F0070301D110F8013B2A110A
:1002300006D110F8012B03E010F8016B01F8016BF7
:100240005B1EF9D12B0705D40023521E0DD401F8F3
:10025000013BFAE710F8013BCB1A921C03E013F8BC
:10026000015B01F8015B521EF9D5A142D8D30020F1
:1002700070BD000038B51020014600900023114ADF
:1002800011A000F029FB04462CB1214611A001F079
:1002900091F8204638BD00F069F804462CB121469B
:1002A00016A001F087F8204638BD00F07DF804461E
:1002B0002CB121461CA001F07DF8204638BD00205D
:1002C00038BD000000050020546573745F517565EA
:1002D00075650000546573745F5461736B20B6D309
:1002E000C1D0B4B4BDA8CAA7B0DCA3A1CAA7B0DC72
:1002F000B4FAC2EB20307825580A000052656365D5
:100300006976655F5461736B20C8CECEF1B4B4BD1D
:10031000A8CAA7B0DCA3A1CAA7B0DCB4FAC2EB207C
:10032000307825580A00000053656E645F5461738D
:100330006B20C8CECEF1B4B4BDA8CAA7B0DCA3A1CF
:10034000CAA7B0DCB4FAC2EB20307825580A000006
:1003500010B54FF4407000F015FE00F01BF900F0EE
:100360003FF8BDE8104000F0E5B8000000B587B0E8
:100370000520ADF8080006A00590094801904FF44B
:100380008060049001A9074800F0A0FB07B000BD01
:10039000526563656976655F5461736B00000000A8
:1003A00075100008F804002000B587B00420ADF8EF
:1003B000080006A00590084801904FF48060049062
:1003C00001A9064800F082FB07B000BD53656E64CA
:1003D0005F5461736B000000E1100008FC04002012
:1003E00070B586B00121084600F0D6FD012110202D
:1003F00000F0E0FD00248DF8164001208DF8170074
:1004000002258DF815508DF81450400204901C4EB2
:1004100004A9304600F038F88DF8145069020491B0
:1004200004A9304600F030F807220A21304600F0D7
:1004300069F807220921304600F064F84FF4E130F2
:100440000090ADF80440ADF80640ADF80840ADF8B6
:100450000C400C20ADF80A000A4C6946204600F01A
:1004600047FF00F047FD012240F22551204600F0F1
:1004700024FF0121204600F00DFF06B070BD0000F2
:1004800000000240001001402DE9F0410022012748
:100490004FF0030C07FA02F50B682B40AB422CD14E
:1004A000066853000CFA03F4A64306600E79D0F8F0
:1004B00000809E4046EA080606600E79012E01D0B3
:1004C000022E12D18668A64386604E79D0F8088045
:1004D0009E4046EA080686604668AE434660456828
:1004E0008E799640B6B235434560C568A543C56070
:1004F000CC799C40C3681C43C460521C102AC9D3E9
:10050000BDE8F08110B54B07DB0E9A40C90800EB3F
:100510008100016A0F249C40A1430162016A1143DA
:10052000016210BD0246002012690A4200D001207B
:10053000704700001CB50121052000F02DFD0120B1
:10054000009000208DF804008DF8070069460548EA
:10055000FFF79AFF4FF40050009069460248FFF7FA
:1005600093FF1CBD000002400008024070B5044625
:100570000D4629462046FFF7D5FF012801D000206F
:1005800070BD29462046FFF7CDFF0128F9D0012094
:1005900070BD00002DE9FC410121802000F0FCFC31
:1005A0004FF48064009401208DF8040000218DF840
:1005B00006108DF807008DF805100C4F6946384677
:1005C000FFF762FF6600009669463846FFF75CFF5A
:1005D000A500009569463846FFF756FF03481830D6
:1005E000048006800580BDE8FC810000001C0240FC
:1005F0004218521E491E824202D922EA0100704767
:100600008843704710B501F049FE2448244900682A
:10061000086001F013FC044644B122A000F0CAFEB9
:10062000214622A000F0C6FE204610BD01F0A2FB2C
:1006300002F04EF904463CB11AA000F0BBFE22A025
:1006400000F0B8FE204610BD02F0B2F901F02EFE17
:100650000028F8D101F0FEFB0028F4D101F00AFDDA
:1006600004463CB10FA000F0A5FE1CA000F0A2FEC5
:10067000204610BD01F032FF04463CB109A000F055
:1006800099FE1BA000F096FE204610BD02F07EFBF6
:1006900001F090FB0028F8D110BD0000342E0008B6
:1006A000EC0400205B4552525D2000006F734D65E5
:1006B0006D53797374656D496E6974206572726FDC
:1006C000722025640A0000006F735461736B496ED9
:1006D0006974206572726F720A0000006F73517541
:1006E000657565496E6974206572726F720A0000E3
:1006F0006F735377546D72496E6974206572726FAF
:10070000720A000042684A600860426811604160F5
:10071000704742684A6008604268116041607047F3
:1007200042684A60086042681160416070474268F0
:100730004A6008604268116041607047D0E9001269
:100740001160D0E9002151600021416001607047D3
:100750004168814201D10120704700207047416803
:10076000814201D1012070470020704741688142D9
:1007700001D101207047002070470068FFF7C2BF19
:1007800070B504460D460020002C0DD0002D0BD076
:100790002946204601F00DFE002805D129462046B5
:1007A000BDE8704001F046B970BD01F0D5B970B533
:1007B00005460C46002D0ED06CB12146284601F0AE
:1007C00032FE012803D02146284601F0E5F9012830
:1007D00003D0012070BD012070BD002070BD00005D
:1007E0002DE9F84F05468846DFF8B0A0DAF800405A
:1007F0002746002D02D0B8F1500F02D80120BDE8E5
:10080000F88FA80701D00120F9E7FFF73FFC8146E8
:1008100005EB08061CE0A0682044A54201D8A642CA
:1008200003D8854212D2864210D31DA000F0C2FD2B
:10083000A068324620440090234629461AA000F0C2
:10084000B9FD4846FFF72AFC0120D8E72746E468AF
:10085000002CE0D14146284601F020FA88B1B8F5D5
:10086000805F03D3284601F00EFE78B1DAF800006D
:1008700088B1FD600020E8604846FFF70FFC0020CB
:10088000BDE74846FFF70AFC0120B8E74846FFF7F6
:1008900005FC0120B3E7CAF80050EBE7E8040020AC
:1008A0005B4552525D200000706F6F6C205B2570BD
:1008B0002C20307825782920636F6E666C6963740C
:1008C000207769746820706F6F6C205B25702C2016
:1008D00030782578290A00002DE9F0470D46089860
:1008E0009046011D8FB2B8F1000F06D04FF6FB7194
:1008F000884205D92648BDE8F08725480930FAE73F
:10090000D5B1C8B1234C05FB07F12068FFF738FFCC
:100910000646300013D0FFF7B9FB81461E48FFF7AB
:1009200025FF78B14846FFF7B9FB31462068FFF74D
:100930003EFF1748401CDEE715480A30DBE7144845
:10094000401ED8E714484468D4E900010860D4E99F
:100950000010486000201C3CE580278126600121B2
:10096000A18020826582A081E08104F114014960A8
:1009700009600831496009600831496009604846EA
:10098000FFF78CFB6089C8F800000020B3E7000087
:1009900003060002EC040020C40400207FB582B0EE
:1009A00006460D461C46234604AA2946304601F059
:1009B0003FFC002806D1042104AB2A4630460094AF
:1009C00001F086FB06B070BDF8B507460D46164629
:1009D0001C46234632462946384601F029FC0028A9
:1009E00006D1002133462A463846009401F070FBB8
:1009F000F8BD3FB581B005461C4604200390234650
:100A000003AA2846029901F02FFC002806D10721ED
:100A100003AB02AA2846009401F05AFB05B030BD92
:100A20007FB582B006460D461C46234604AA2946D9
:100A3000304601F019FC002806D1032104AB2A46F8
:100A40003046009401F044FB06B070BD10B5FFF7CE
:100A50001DFB044601F092FA0A49283848600968EB
:100A6000814202D00848008820B12046BDE81040ED
:100A7000FFF714BB2046FFF711FBBDE81040FFF75E
:100A800010BB00006C0400204C04002010B502F0E4
:100A9000FDF804463CB106A000F08CFC06A000F076
:100AA00089FC204610BDFFF7CDFA204610BD00009E
:100AB0005B4552525D2000006F735469636B537441
:100AC000617274206572726F720A000070B504461C
:100AD000204600F035F8002829D1184D2068C0EBD9
:100AE000C000E96800EB400001EB8004FFF7CEFA9C
:100AF0000646A08820F0020040F00400A080E188B3
:100B000004F1280001F0F2F901F038FA05F12001B2
:100B100028384860EA695AB12A884AB90968814286
:100B200006D03046FFF7BAFA01F0BEFB002070BDD8
:100B30003046FFF7B3FA002070BD00004C040020DF
:100B40002DE9F05F80460D464FF0FF39B8F1000FF8
:100B50000BD065B1286960B1286860B1A9884A4A9C
:100B60001F290AD91046BDE8F09F4848FBE74848CE
:100B7000F9E74848F7E74848F5E704D1474988428C
:100B800001D01046EFE74649464FE86809683A68E1
:100B9000891A491C884202D93C481930E3E710B948
:100BA0004FF43470E8600821E868FFF721FDE86041
:100BB000B0F5987F02D23548401ED4E7FFF766FAB9
:100BC00082460026DFF8E0B010E0DBF80400A0F178
:100BD0002804FFF7B3FD344804F128010838FFF773
:100BE00091FDE1683868FFF7E2FDE6602E48FFF707
:100BF000B6FD0028E9D02C480838FFF7B0FD10B149
:100C0000224C0A343AE0284808384068A0F1280409
:100C1000FFF794FD5046FFF741FAD4F810A00822E0
:100C2000E9683868FFF7C1FD074638001CD03A462E
:100C30005046E96802F0B2F82060A8682062E760D8
:100C4000E868A060A661E6610220A080A888E08034
:100C500028686061C4F83C90A664286960622665D3
:100C6000C8F800A000207EE7FFF710FA82460E4881
:100C700004F128010838FFF745FD0C4C5046FFF7FA
:100C80000DFA20466FE7000003020002070200028F
:100C9000010200020502000204020002B11D000868
:100CA000382E0008342E00088404002000020003BF
:100CB00070B5054616480068002801D0154870BD7B
:100CC0001548008808B1154870BDEDB1FFF7DEF991
:100CD0000646114C20342068283001F0E7F82268DD
:100CE000908820F0040090802946206801F092FD51
:100CF0002068818841F0200181803046FFF7CEF9DD
:100D0000FFF7A4FE002070BDBDE8704000F0B4B84D
:100D1000240400200D0200034C0400200E020002F7
:100D20002DE9F04706464FF0FF39DFF84081D8F84B
:100D30001400864202D14E48BDE8F087D8F818006A
:100D4000864202D14A480D30F6E7D8F810008642B4
:100D500002D347480D38EFE7FFF798F90746C6EB8F
:100D6000C600D8F80C1000EB400001EB8004A58809
:100D7000E80706D03E4C0A3C3846FFF78FF920467C
:100D8000DAE7E8064FF0000A04D5B8F8000008B129
:100D9000A8F800A0680708D504F1280001F086F83B
:100DA000A08820F00400A08009E005F0080005F408
:100DB0000051084303D004F12800FFF7BFFC15F0F1
:100DC000600F02D0204601F0ABFFA08820F00200A7
:100DD00040F00100A080C4F83C90C4F848A001F0A5
:100DE000CDF8DFF88890283809F12009C9F8040007
:100DF00020794FF00105C00624D504F1280109F13E
:100E00001800FFF7BAFCD8F81000D8F80C10C0EBA7
:100E1000C00000EB400001EB8000C9F80000066153
:100E2000D9F80010A0888880D9F80000E168C16076
:100E3000616A4162A5803846FFF730F901F034FA63
:100E4000002079E7A580094804F128013030FFF738
:100E500059FC0848E1680068FFF7A9FCC4F80CA039
:100E60003846FFF71BF9002066E700004C0400201D
:100E700014020002342E000870B5194CA4F12002AF
:100E8000206812690169914201D3164870BD00794A
:100E9000400701D4002070BDFFF7F8F80546206830
:100EA000C08801F05BF8012814D920682830FFF7CA
:100EB00045FC2068818841F0040181802068C18858
:100EC000283001F013F82846FFF7E8F8FFF7BEFDD9
:100ED000002070BD2846FFF7E1F80248093070BDD8
:100EE0006C04002007020002014903C9704700009A
:100EF000A004002008B54FF4A06000F043F82520BE
:100F00008DF8000001208DF801008DF802008DF8A9
:100F10000300684600F002F808BD000030B50F235A
:100F2000C27801250178002A1FD0154A126802F400
:100F3000E062C2F5E062C2F30722C2F10404D340CA
:100F40004278A24084781C401443220101F1E02140
:100F500081F80024007800F01F018D4040098000D6
:100F600000F1E020C0F8005130BD01F01F008540C5
:100F70004809800000F1E020C0F8805130BD000039
:100F80000CED00E002490843024908607047000088
:100F90000000FA050CED00E0054A002903D01168B5
:100FA0000143116070471168814311607047000070
:100FB00030380240054A002903D01168014311600E
:100FC0007047116881431160704700004438024047
:100FD00070B5244B196801F00C01234C00291ED078
:100FE000224E04291DD008291DD00460196801F083
:100FF000F00109091E4A545C0168E14041601C6827
:1010000004F4E054A40A145D21FA04F484601B681B
:1010100003F460435B0BD25CD140C16070BD0460DF
:10102000E4E70660E2E70F4A121F1168C1F380553A
:10103000116801F03F0135B1B6FBF1F11468C4F35A
:101040008814614305E0B4FBF1F11468C4F388141B
:1010500061431268C2F30142521C5200B1FBF2F12B
:101060000160C3E7083802400024F40040787D01A5
:101070001404002008B510250A4C4FF0FF36334603
:101080002A4669462069FFF789FC014619B106A086
:1010900000F090F9F3E7009801680BA000F08AF9DE
:1010A000EDE70000F004002020CFFBCFA2B6C1C8BE
:1010B000A1B3F6B4EDA3ACB4EDCEF3B4FAC2EB3009
:1010C0007825580A0000000020B1BEB4CEB6C1C8D1
:1010D000A1B5BDB5C4CFFBCFA2CAC725640A000025
:1010E000154D164F164C4FF4005601212846FFF7B8
:1010F0003DFA01280AD10023042211492069FFF793
:1011000078FC014611B10FA000F054F93146384681
:10111000FFF72CFA01280BD1094900230422091DED
:101120002069FFF766FC014611B106A000F042F904
:101130001420FFF7BDFDD8E7000002400008024080
:10114000F004002020CFFBCFA2B2BBC4DCD0B4C8D7
:10115000EBB5BDCFFBCFA2B6D3C1D0A3A120B4EDD8
:10116000CEF3B4FAC2EB20307825580A0000000014
:101170001CB50021019100912E4A106840F4803086
:1011800010604FF4A043106800F400300090019804
:10119000401C0190009810B901989842F3D1106852
:1011A000800302D50120009000E000910098012802
:1011B0003FD120484030016841F0805101601E4914
:1011C000086840F4404008601A480830036803602B
:1011D000036843F400430360036843F4A0530360CF
:1011E000041F164B2360136843F080731360136869
:1011F0009B01FCD50A6842F480320A604A68D20337
:10120000FCD50A6842F400320A604A689203FCD5B1
:101210000B4A40F205711160016821F00301016081
:10122000016841F0020101600168C1F381010229F6
:10123000FAD11CBD0038024000700040195A400726
:10124000003C024010B50F48016841F00101016007
:101250000C4A00210832116002680B4B1A400260F0
:10126000031D0A4A1A60026822F4802202600548BF
:101270000C300160FFF77CFF05494FF0006008600B
:1012800010BD000000380240FFFFF6FE10300024C1
:1012900008ED00E0002904D0818941F400518181EA
:1012A0007047818921F400518181704702460020F6
:1012B00012880A4200D00120704710B540F66A1328
:1012C000C1F3421301F01F040121A140012B07D0FB
:1012D000022B07D014303AB102680A43026010BDF5
:1012E0000C30F8E71030F6E702688A43026010BD60
:1012F0007FB504460D46208A20F44051E888084313
:101300002082A08941F20C618843A9882A8911436F
:101310006A8902431143A181A08A20F44071A889FF
:101320000843A0826846FFF753FE1E48844202D05D
:101330001D48844201D1039800E00298A189090464
:1013400008D500EBC00101EB001029684900B0FB93
:10135000F1F007E000EBC00101EB00102968890003
:10136000B0FBF1F06422B0FBF2F109010B096FF060
:1013700018056B4300EB8300A3891D044FF0320373
:1013800007D503EBC000B0FBF2F000F00700084304
:1013900006E003EB0010B0FBF2F000F00F00084392
:1013A00020817FBD0010014000140140C1F30801FD
:1013B000818070470FB4054B10B503A9044A029809
:1013C00000F018F810BC5DF814FB00004D18000880
:1013D0000405002002E008C8121F08C1002AFAD143
:1013E00070477047002001E001C1121F002AFBD1A5
:1013F000704700002DE9FF4F8DB00F4605460026CF
:1014000006E025280BD0DDE90F1290476D1C761CF5
:1014100028780028F5D111B03046BDE8F08F0024BF
:10142000A246A1460122E94900E0044315F8013F24
:10143000203B02FA03F00842F7D128782A2810D07E
:101440006FF02F022878A0F13001092914D80AEB97
:101450008A0102EB410144F0020400EB010A6D1C19
:10146000F0E701CF5FEA000A03D544F40054CAF163
:10147000000A44F002046D1C28782E2817D115F8B4
:10148000010F44F004042A280ED06FF02F022878B0
:10149000A0F1300109290AD809EB890102EB4101C9
:1014A00000EB01096D1CF2E757F8049B6D1C2878CE
:1014B0006C280FD006DC4C2817D068280DD06A287D
:1014C00014D104E0742810D07A280FD10DE044F430
:1014D00000140AE044F4801401E044F440146978F4
:1014E000814202D104F580146D1C6D1C28786E2891
:1014F0001ED00CDC632830D004DC00288BD05828A8
:1015000011D19FE0642867D069280CD164E073286A
:101510002DD004DC6F2872D0702804D194E0752897
:101520006ED078286DD0DDE90F129047761C4BE124
:10153000C4F30250022806D0032809D0042801CFA2
:1015400009D0066040E101CFF117C0E900613BE13D
:1015500001CF068038E1067036E117F8040B8DF8EC
:10156000000000208DF80100EB46012003E057F851
:1015700004BB4FF0FF3061074FF0000102D40DE0D3
:1015800008F10101884649450FDA8045F8DB1BF870
:1015900008100029F4D108E008F1010188468142D1
:1015A000FADB1BF808100029F6D1DDE90F23AAEBBE
:1015B00008008146214600F031F9304400EB08066E
:1015C00004E0DDE90F121BF8010B9047B8F10108A8
:1015D000F7D221464846F2E00A21C4F302524FF006
:1015E000000B0891022A04D001CFC117032A09D0A9
:1015F0000AE0FF1D27F00707F7E8020108E02CE0EA
:101600001EE01FE000B2C117042A01D140B2C11789
:10161000021E71F1000206DA0023D0EB030063EB37
:1016200001012D2202E0220504D52B228DF8242071
:10163000012203E0E20701D02022F7E7904653E0C1
:101640000A210BE0102109E010214FF0000B44F0BB
:1016500004044FF00809089103E008214FF0000B43
:101660000891C4F30252022A04D001CF0021032AB8
:1016700006D006E0FF1D27F00707F7E8020103E0A8
:1016800080B2042A00D1C0B24FF0000822072BD547
:101690002A78702A07D0DDF820C08CF0100C5CEAA4
:1016A0000B0C05D00EE040228DF82420012208E02A
:1016B00050EA010306D030238DF824308DF8252020
:1016C00002229046089B83F0080353EA0B030BD1D8
:1016D00050EA010201D1620706D530228DF824209C
:1016E0004FF00108A9F101092A78582A04D038A23C
:1016F0000B9208AA0A920BE03AA2F9E75B46089A15
:10170000FEF706FD0B9B9B5C0A9A521E0A92137011
:1017100050EA0102F2D10A98ADEB000000F1200B73
:10172000600702D524F4803401E04FF00109D94567
:1017300002DDA9EB0B0000E0002000EB0B014144AF
:101740000890AAEB010AE00306D4DDE90F23214645
:10175000504600F063F806444FF0000908E009A97C
:1017600011F80900DDE90F12904709F10109761C13
:10177000C145F4DBE0030CD5DDE90F2321465046DB
:1017800000F04CF8064404E0DDE90F1230209047E9
:10179000761C0899481E08900029F5DC08E00A9894
:1017A0000A990078491C0A91DDE90F129047761CCE
:1017B000BBF10001ABF1010BF1DC21465046DDE944
:1017C0000F2300F019F806446D1C21E609280100DA
:1017D00030313233343536373839616263646566A7
:1017E0000000000030313233343536373839414269
:1017F00043444546000000002DE9F0410446002521
:101800001E461746880404D405E039462020B04718
:101810006D1C641EF9D52846BDE8F0812DE9F04124
:10182000044600251E469046C80301D5302700E037
:101830002027880404D505E041463846B0476D1C92
:10184000641EF9D52846BDE8F081000070B5044655
:10185000064DE1B22846FFF7A9FD80212846FFF793
:1018600025FD0028F9D0204670BD00000010014081
:1018700010B5FEF76DFD0FA0FFF79CFD13A0FFF75D
:1018800099FD1BA0FFF796FDFEF7BCFE014621B1B6
:1018900021A0FFF78FFD012010BDFEF7EBFC0146F4
:1018A00021B127A0FFF786FD012010BDFFF7EEF85C
:1018B000FEE70000D5E2CAC7CFFBCFA2B6D3C1D0A6
:1018C000CAB5D1E9A3A10A0A00000000B0B4CFC292
:1018D000204B45593120BACD204B45593220D0B448
:1018E000C8EBB6D3C1D0CFFBCFA2A3A10A000000A2
:1018F000526563656976655F5461736B20C8CECEAF
:10190000F1B6C1C8A1B5BDCFFBCFA2D4DAB4AEBF8A
:10191000DABBD8CFD40A0A004C6974654F5320BA99
:10192000CBD0C4B3F5CABCBBAFCAA7B0DCA3A1CAB5
:10193000A7B0DCB4FAC2EB20307825580A000000CA
:101940004170705461736B43726561746520B4B407
:10195000BDA8C8CECEF1CAA7B0DCA3A1CAA7B0DC8F
:10196000B4FAC2EB20307825580A000010B586B0D2
:101970000446142101A8FEF715FC01A9204600F039
:10198000B7F906B010BD4A0900EB8202121D0068CB
:10199000884206D901F01F0301211068994088434D
:1019A0001060704730B502C81F314B09002200217A
:1019B00007E00468641C02D00468E34308E0491CA3
:1019C000001D9942F5D34FF0FF3030BD5B08521C2B
:1019D000002BFBD1531E01259D402C43046002EBDC
:1019E0004110401E30BD02688A4201D80020704775
:1019F0004A0900EB820001F01F024068012191407A
:101A00000840F4D00120704770B505460C462C60A4
:101A100004F11F00C108281DFEF7C4FBE00608D032
:101A200004F01F014FF0FF308840610905EB810190
:101A3000486070BD2DE9F04106460D460024A046E1
:101A4000002E07D0FEF722FB0746ED1C25F003050C
:101A5000706813E00020BDE8F08141684A000CD4B2
:101A600021F04041A94208D324B1626822F04042EB
:101A70008A4202D90446A94220D000680028ECD14D
:101A8000F4B3606820F04040401B082816D9621962
:101A90000832506820F0804050606168491B083966
:101AA00061F31D00506014602146304600F015F9C6
:101AB00038B30260606865F31D006060606820F004
:101AC000004040F08040606004F1080813498868D5
:101AD000284408308860CA68904200D9C860086805
:101AE000401C08607068406820F04040B0F5806F8E
:101AF00002D23046FFF73AFF3846FEF7CFFA01E050
:101B000002E009E04046A6E705A0FFF753FC29469E
:101B100005A0FFF74FFCE5E77260CBE7D804002093
:101B20005B4552525D200000746865726527732022
:101B30006E6F7420656E6F7567682077686F6C656F
:101B400020746F20616C6C6F63202578204279745B
:101B50006573210A0000000070B51446002806D005
:101B600029B1042C03D3621E1546144201D0002073
:101B700070BD2144091FFFF75DFF0028F8D001194F
:101B8000491EA9438842F3D0081A40F0004041F8AA
:101B9000040C084670BD00002DE9F04104460D46D6
:101BA0000126002C18D0BDB155F8040C002802DA2B
:101BB00020F000402D1A2068A84203D86068083041
:101BC000A8420BD22DA0FFF7F5FB29462DA0FFF769
:101BD000F1FB0020BDE8F0810120FBE7FEF756FA9B
:101BE0000746A5F10802506840000ED520689042D3
:101BF0000DD01168814208D360680830814204D852
:101C0000204600F06AF8904201D0002631E050688A
:101C100020F080405060204D20F0404000F108034B
:101C2000A9688B4204D8081A0838A86000E0024668
:101C3000106868B141684900F9D509E051680B4462
:101C4000083363F31D0151606168814200D1626015
:101C50001146204600F041F810B143685900EDD517
:101C60001146204600F039F800B102606868401C57
:101C700068603846FEF712FA3046ABE75B455252D1
:101C80005D20000030782578206F7574206F662005
:101C900072616E6765210A00D804002070B50446A1
:101CA0000E462546002D01D0582E01D8002070BDCB
:101CB00031462046FEF776FAAE6050342C606C60F8
:101CC000606820F080406060002020606068583EBE
:101CD00066F31D006060012070BD4068884201D13C
:101CE00000207047486820F04040084408307047A2
:101CF00030B50023002802D019B142680BE0012062
:101D000030BD012030BD5468650003D524F0404447
:101D1000234408331268002AF5D182689A4201D21E
:101D2000012030BD4B6080680860C01A886003489D
:101D30000268CA6040680861002030BDD8040020F5
:101D400000F05AF8044604A0FFF734FB2246044989
:101D500004A0FFF72FFBFEE75B4552525D20000019
:101D6000202E00082573206972716E756D3A256406
:101D70000A00000010200A4A0A4941F82020401CAD
:101D8000FF28FAD908480160011D08684FF6FF02D4
:101D90001040064A40F4E0601043086070470000BD
:101DA000411D00080000002008ED00E00000FA05D9
:101DB000FEE7000000B587B0182101A8FEF7F2F990
:101DC000084801904FF4A060049007A005901F20E0
:101DD000ADF8080001A90748FEF778FE0028FFD1FA
:101DE00007B000BDB11D000849646C65436F7265A2
:101DF0003030300060040020EFF3058070470000B1
:101E000010B5FEF743F90B4C2168491C2160FEF721
:101E100045F9FFF7F1FF084951F8200000B180476C
:101E2000FEF734F92168491E2160BDE81040FEF735
:101E300035B900002404002008050020034801688B
:101E400003480068091A491CFEF7CABC382E00086E
:101E5000342E00082DE9F04111484060006011481F
:101E60004FF4F0710068FEF78BFC0D4D2D1F2860BC
:101E700098B1002400262F1D296804EB440001EBD3
:101E8000C0014C6001F8086B3868FEF742FC641C26
:101E9000142CF1D30020BDE8F0810348FBE70000DB
:101EA000B8040020EC040020001D000270B5D0E949
:101EB00000121160D0E900215160002141600160F1
:101EC000A0F12804084DE088696801EBC000FEF726
:101ED0003FFC002806D0A1794FF00040C840296897
:101EE0008143296070BD00002804002070B50446BD
:101EF0000D460C4E706800EBC500FEF729FC28B1BA
:101F00004FF000403168E84008433060706800EBF3
:101F1000C5000168486860602160486804604C60E2
:101F200070BD00002804002010B500244FF480711B
:101F300008480068FEF724FC07494860002807D0DD
:101F4000486800EBC40040600060641C202CF7D39C
:101F500010BD0000EC0400202804002001460020F1
:101F6000054A526802EBC102516801E0401C496811
:101F70008A42FBD170470000280400200649086807
:101F8000002806D0B0FA80F0496801EBC000406834
:101F90007047002070470000280400202DE9F04120
:101FA000044616461F4611F003004FF000030BD005
:101FB000012812D003281AD024A0FFF7FBF9BDE8AE
:101FC000F04124A0FFF7F6B9A089E588421CAA4297
:101FD00001D1A38113E0A28111E0A08918B1401EB4
:101FE000A081A0890BE0E088401EA081F9E7E0898C
:101FF000E588421CAA4201D1E38100E0E281228906
:10200000236800FB0235480708D5C80703D03068AD
:102010002860BDE8F08128683060FAE7C8070AD078
:10202000314628463A68FEF7A4F820892D1F284437
:1020300039680160EDE7281F1044046829462246EC
:102040003046FEF796F83C60E3E700005B455252ED
:102050005D200000696E76616C696420717565753C
:1020600065206F7065726174652074797065210AEE
:102070000000000070B513484FF4DC74214600687E
:10208000FEF77EFB104D2860C8B12146FEF78AF8A6
:10209000281D406000600024064604EB44002968C7
:1020A00000EBC40001EB80014C811C313068FEF76D
:1020B00037FB641CA4B20A2CEFD3002070BD034888
:1020C00070BD0000EC040020C004002001060002E6
:1020D0002DE9FF5F0446DDF838A00F46994600253C
:1020E00007F00106FDF7D2FF80464D4904EB44009E
:1020F00000EBC400096801EB8004A08810B1F80768
:1021000002D00AE0474D85E02089D9F80010001F71
:10211000814202D2434D15357CE0F80708D0208972
:10212000D9F80010001F814202D93E4D0B3571E0F5
:1021300004EB4601088AE8B1401E08824B46394646
:102140002046029AFFF72AFFEEB3002004EBC000FE
:102150001430FEF70BFBB8B3002E54D04FF0000044
:1021600004EB4000008A00F1010081B24ED14FF033
:1021700001004CE0BAF1000F05D02B48008850B1A7
:10218000284D2D1F46E0F80702D0264D0C3541E0C2
:10219000244D13353EE02548D0F800B004EBC600CE
:1021A000143052464FF4005100F014FD4046FDF744
:1021B00075FFFEF74BFCFDF769FF8046BBF8040096
:1021C0004106BBD501E007E008E020F04000ABF895
:1021D0000400144DED1E1DE00120B7E78EB1002074
:1021E00004EBC000806928384FF4005100F018FD5E
:1021F0004046FDF753FFFEF729FC002004B0BDE880
:10220000F09F0120ECE74FF00100A9E7002004EB6C
:10221000400001824046FDF741FF2846EEE70000FE
:10222000C00400200A0600024C0400206C040020B8
:102230000A2801D30A48704749B142B1106848B131
:102240005BB10848006840B105480A30704704484F
:10225000401C70470248801C7047002070470000F7
:102260000E060002240400200A2801D30948704702
:1022700041B1106848B15BB10748006840B10548FA
:10228000401F70470348001D70470248401D7047BB
:10229000002070470E06000224040020014910208F
:1022A000086070475C040020FDF7FBBE2DE9F0419B
:1022B00010484060006010484FF4A0710068FEF7BD
:1022C0005FFA0C4D2D1F286090B1002400262F1DB1
:1022D000286800EB0411CC8021F8086B3868FEF701
:1022E00026FA641CA4B2142CF2D30020BDE8F081BD
:1022F0000248FBE7D0040020EC04002000070002A5
:1023000010B50446A068FFF74DFB002801DA002055
:1023100010BDD4E9002102FB001010BD10B503462A
:102320005868081A1A68B0FBF2F4B0FBF2F102FB2D
:10233000110000280DD198680168A14209D92146F1
:10234000FFF751FB28B121469868FFF71CFB0120DD
:1023500010BD002010BD2DE9F0410D461F4607F1CC
:102360001F01042303EBD1018E18761E541EA643D1
:1023700015446D1EA54305FB07F131440C31FFF7F1
:1023800059FB044644B1256004F10C00A06081199A
:1023900061603946FFF738FB2046BDE8F0814DF615
:1023A000DE62028081700021C170001D7047103014
:1023B000704770B50E46FFF7FAFF05460024802EE1
:1023C00001D9002070BD05EB04100068B04225D390
:1023D000FDF75CFE064605EB0414D4E901108842C3
:1023E00004D33046FDF75AFE002070BDE06880B18E
:1023F000FFF786FF05463DB128462168FFF7CFFF6E
:102400000546A068401CA0603046FDF747FE284600
:1024100070BD3046FDF742FE002070BD641C042CE8
:10242000D1D3002070BD2DE9F0410D46FFF7BFFF6D
:102430000646002700242D1F2888A0F55E41DE39BE
:1024400002D00020BDE8F081A87806EB04110968ED
:10245000884213D8FDF71AFE804606EB041429467D
:10246000E068FFF75BFF012803D10127A068401E49
:10247000A0604046FDF712FE3846E3E7641C042CDA
:10248000E3D30020DEE72DE9F05F83465846FFF7EF
:102490008EFF074600240025A1464FF010084FF498
:1024A000007A08FA04F1BAFBF1F307EB0416316085
:1024B0007360C6F80890F06808B16D1C05E004224E
:1024C000091D5846FFF747FFF060641C042CE8D351
:1024D00015B10020BDE8F09F0120FBE7F8B54021D1
:1024E0001B48FDF75FFE1B4D0027AF614FF4E07105
:1024F0000E4619480068FEF743F90446ECB1314630
:102500002046FDF74FFE2C616C61278121461C346B
:10251000012020810C602146401C80B21C34102810
:10252000F7D308200B4A002300900C3210211846E4
:10253000FEF7D2F920B10948F8BD0848001FF8BDE0
:1025400000F0F0F810B10548401CF8BD0020F8BDBF
:102550000809002030040020EC0400200B030002D6
:102560002DE9F04F0024671EBC464FF01008C1460D
:1025700000260169C160017A01F00F05DFF860B142
:10258000584A4FF0030E5BF82510D2F818A0BEEBA6
:10259000517F62D141F000414BF8251021F07F427C
:1025A00000234F4951F823B02BF07F4131B3AB42A8
:1025B00024D0BEEB9B7F21D1914206D3B1FBF2FB2D
:1025C00002FB1B1BBBF1000F09D0914216D2B2FBDC
:1025D000F1FB01FB1B2BBBF1000F08D00EE0B1FBA0
:1025E000F2FBBB450AD2B1FBF2F7984606E0B2FB1C
:1025F000F1FBE34502D2B2FBF1FC99465B1C9BB2B6
:10260000102BCED33749B8F1100F0A6919D05146B3
:10261000C8EBC80302EB830206E0CB681E440B89BB
:102620001589AB4202D009680029F6D1A9B309691E
:102630008A1B0169B2FBF1F301FB1322891AC16005
:1026400036E0B9F1100F33D00021C160C9EBC901E8
:1026500002EB8104D4F800A02DE00222B2EB517FFE
:1026600026D141F000414BF8251051460CE00A6993
:1026700003699A4207D10A7A02F00F025BF822201E
:10268000BEEB927F02D009680029F0D129B1002267
:10269000C2600C46D1F800A00DE009E0DAF80C1099
:1026A000C268914207D8511AC1605446DAF800A0B6
:1026B000BAF1000FF2D1C0F800A0BAF1000F05D0B6
:1026C000DAF80C10C268891ACAF80C1024B120601C
:1026D00002210171BDE8F08F02498861F8E700002E
:1026E00008090020300400200EB5082000900C4D91
:1026F0004FF0FF3633466A4601A9E868FEF764F9F1
:102700000028F7D100980828F4D101980028F1D0CA
:10271000FEF7EAFBDDE901108847FEF7E5FBE9E794
:102720003004002000B587B0182101A8FDF73AFD5C
:10273000074801904FF43470049006A005900020E3
:10274000ADF8080001A90648FEF7C0F907B000BDC2
:10275000E92600085377745F5461736B0000000032
:10276000640400207CB5194DAC6928E02068A8619C
:10277000A069009060690190002308226946E8681A
:10278000FEF74EF9607920B1012811D0022813D04C
:1027900014E0204600F01CF820894FF6E0718842D2
:1027A00002D21030208109E000F00F00208105E006
:1027B0002046FFF7D5FE01E001202071AC69002C16
:1027C00002D0E0680028D1D07CBD00003004002099
:1027D00006494A690260486100210171007A044A91
:1027E00000F00F0042F82010704700003004002075
:1027F0000809002010B506488069002805D0C16886
:10280000491EC16001D1FFF7ADFF002010BD0000DF
:1028100030040020F0B4024601F01F034809002BE9
:1028200000D1401E916B01F0784101431B4C20798F
:10283000184400F01F0060F3DF619163216801EB31
:10284000C00302F130015868984203D1F0BC184629
:10285000FDF793BF3038946B866B24F0784726F0F1
:102860007845BD420BD87D1B04F078442543956321
:10287000406B303800F130049C42ECD10AE0836BAD
:10288000926B23F0784322F078429A1A06F078434C
:102890001A438263F0BC3030FDF76FBF8C04002018
:1028A00070B5094DC0EBC00000EB4000E96801EBDA
:1028B00080046169206A8847002028802069BDE87B
:1028C0007040FEF72DBA00004C04002072B6FEE7FF
:1028D0002DE9F041334D54202C69641C4443324EA1
:1028E00021463068FDF74CFFE860304F002854D097
:1028F0002146FDF757FC05F12800406000600830D4
:102900004060006008304060006000244FF0010823
:10291000C4EBC400E96800EB400001EB8001A1F8C2
:1029200004800C611F4828313030FDF726FF641CFD
:102930000F2CEDD94FF00008C5F824802869E9680C
:10294000C0EBC00000EB400001EB800015492031D6
:10295000086004610A681120908009682020C880FE
:10296000FFF7E2FA4FF480710D463068FDF708FF7B
:102970000446200013D02946FDF714FC09484030D6
:102980000460A0F80480002064602460401C0834C7
:102990002028F9D30020BDE8F0813846FBE738460F
:1029A000F9E700004C040020EC04002000020003C2
:1029B00010B54FF4AB710648FDF7F4FB04490A204B
:1029C00048700548034941600021816010BD000046
:1029D00048090020992A00084C0400202DE9F04104
:1029E00000272C490879401C00F01F0088800968E6
:1029F00001EBC0067468B44249D0303C3DE0A58884
:102A0000A06B400103D0A06B401EA06339E004F12D
:102A10003000FDF793FE28070BD5A08820F00800B2
:102A2000A08004F12800FDF789FE0020A061E0618C
:102A300015E0680504D5A08820F48060A0800EE031
:102A4000A80408D504F12800FDF778FEA08820F43A
:102A50000050A08003E0A08820F02000A080A807FC
:102A600009D4A08840F00400A080E18804F1280087
:102A7000FFF73CFA01277468303C04F13000B042A3
:102A8000BDD1002F03D0BDE8F041FDF7DFBFBDE8A9
:102A9000F08100008C04002010B52A4C2068C0682A
:102AA0000068B0F1CC3F08D027A0FEF783FC206877
:102AB0000269416A26A0FEF77DFC6068C268016871
:102AC000914203D980681044884211D21EA0FEF7BB
:102AD00071FC60680269416A27A0FEF76BFC1AA0CE
:102AE000FEF768FC6068C26801682CA0FEF762FC13
:102AF0006068374C018A227804EB42025180416AB7
:102B00002078202204EB40101630FDF732FB2078AD
:102B1000002104EB401080F835102078401CC0B232
:102B200020700A2804D12170607840F08000607025
:102B3000044820388068002802D0BDE810400047D3
:102B400010BD00006C0400205B4552525D20000067
:102B500043555252454E54207461736B2049443A98
:102B60002025733A256420737461636B206F76654A
:102B700072666C6F77210A004849474845535420D4
:102B80007461736B2049443A2025733A25642053BD
:102B900050206572726F72210A0000004849474850
:102BA000455354207461736B20537461636B506F91
:102BB000696E7465723A203078257820546F704FB2
:102BC00066537461636B3A20307825780A00000000
:102BD000480900202DE9F04107460E4615460F48EA
:102BE000046804F128008046FFF760F9A08820F00F
:102BF000040041463043A0803846FDF7BEFD681C06
:102C000009D0A08840F04000A08029462046BDE8B9
:102C1000F041FFF7FFBDBDE8F08100006C0400202B
:102C200070B504460D4604F128000646FDF786FD02
:102C3000A088A843A080400606D5204600F070F882
:102C4000A08820F04000A080A088810708D440F030
:102C50000400A080E1883046BDE87040FFF746B927
:102C600070BD000010B50848D0E902134A1C43F1BA
:102C70000001C0E9022100F06DF8FFF7AFFEBDE8EA
:102C80001040FFF7B7BD00009804002010B51A48A7
:102C90000068002803D04FF47A72904201D217489E
:102CA00010BD184B1649D963184B1749D963B0FBAF
:102CB000F2F1174B1960174900230B604B60B0FB12
:102CC000F2F0401EB0F1807F01D301200AE04FF006
:102CD000E0214861104AF020107000208861072030
:102CE00008610020012804D00C4901200860002060
:102CF00010BD0248801C10BD00040020000400022A
:102D0000011E000800000020652C000808050020B6
:102D1000A8040020A004002023ED00E0940400207B
:102D200030B4826BD10E0A4B1B6803EBC103416BBD
:102D3000994209D08B6822F0784223F078442244EB
:102D400003F078431A438A6030BC3030FDF7F6BC9C
:102D50008C0400200B480A4A01680B48136800687D
:102D60008B4204D01160D388411E19449180918810
:102D700080B2814203D100201060FEF77DB8704719
:102D8000AC0400206C040020A004002002480021B4
:102D900001600A21C1807047AC04002070B506466E
:102DA0000D4614464FF0CA3229462046FDF7F3F986
:102DB0004FF0CC302060601944384FF0043101608E
:102DC0004FF0053141604FF0063181604FF007311F
:102DD000C1604FF0083101614FF0093141614FF09E
:102DE000103181614FF01131C161002101624662F1
:102DF0004FF0013181624900C1624FF0033101633C
:102E00004FF012314163044981630449C1634FF0BB
:102E10008071016470BD0000CD280008A128000861
:102E20006F7348776944656661756C7448616E6458
:102E30006C657200A00A0020FFFB02206C2E0008C7
:102E400000000020000400001C020008842E00087E
:102E50000004002008010000D41300088C2F000893
:102E60000805002098090000E41300084122090C1D
:102E70001008411D040110A9185AAD3401FF01FFCB
:102E800001FF01C30095BA0A000000000000000025
:102E90000102030406070809000000000102030400
:102EA00001020304060708090000000000000000FA
:102EB0000000000000000000000000000000000012
:102EC0000000000000000000000000000000000002
:102ED00000000000000000000000000000000000F2
:102EE00000000000000000000000000000000000E2
:102EF00000000000000000000000000000000000D2
:102F000000000000000000000000000000000000C1
:102F100000000000000000000000000000000000B1
:102F200000000000000000000000000000000000A1
:102F30000000000000000000000000000000000091
:102F40000000000000000000000000000000000081
:102F50000000000000000000000000000000000071
:102F60000000000000000000000000000000000061
:102F7000000000000100000002000000000000004E
:0C2F800000000000000000000000000045
:040000050800002DC2
:00000001FF
